{
  "contractName": "Betting",
  "abi": [
    {
      "inputs": [
        {
          "internalType": "contract IBEP20",
          "name": "_token",
          "type": "address"
        }
      ],
      "stateMutability": "nonpayable",
      "type": "constructor"
    },
    {
      "anonymous": false,
      "inputs": [
        {
          "indexed": false,
          "internalType": "uint256",
          "name": "betIndex",
          "type": "uint256"
        },
        {
          "indexed": true,
          "internalType": "address",
          "name": "user",
          "type": "address"
        },
        {
          "indexed": false,
          "internalType": "string",
          "name": "opcode",
          "type": "string"
        },
        {
          "indexed": false,
          "internalType": "uint256",
          "name": "value",
          "type": "uint256"
        }
      ],
      "name": "Bet",
      "type": "event"
    },
    {
      "anonymous": false,
      "inputs": [
        {
          "indexed": false,
          "internalType": "uint256",
          "name": "betIndex",
          "type": "uint256"
        }
      ],
      "name": "PayoutProcessed",
      "type": "event"
    },
    {
      "anonymous": false,
      "inputs": [
        {
          "indexed": false,
          "internalType": "uint256",
          "name": "betIndex",
          "type": "uint256"
        }
      ],
      "name": "Refund",
      "type": "event"
    },
    {
      "inputs": [
        {
          "internalType": "uint256",
          "name": "",
          "type": "uint256"
        }
      ],
      "name": "Bets",
      "outputs": [
        {
          "internalType": "address",
          "name": "user",
          "type": "address"
        },
        {
          "internalType": "string",
          "name": "opcode",
          "type": "string"
        },
        {
          "internalType": "uint256",
          "name": "value",
          "type": "uint256"
        },
        {
          "internalType": "string",
          "name": "betTxId",
          "type": "string"
        },
        {
          "internalType": "string",
          "name": "payoutTxId",
          "type": "string"
        },
        {
          "internalType": "string",
          "name": "finalStatus",
          "type": "string"
        }
      ],
      "stateMutability": "view",
      "type": "function",
      "constant": true
    },
    {
      "inputs": [],
      "name": "betIndex",
      "outputs": [
        {
          "internalType": "uint256",
          "name": "",
          "type": "uint256"
        }
      ],
      "stateMutability": "view",
      "type": "function",
      "constant": true
    },
    {
      "inputs": [],
      "name": "totalBets",
      "outputs": [
        {
          "internalType": "uint256",
          "name": "",
          "type": "uint256"
        }
      ],
      "stateMutability": "view",
      "type": "function",
      "constant": true
    },
    {
      "inputs": [],
      "name": "totalPayout",
      "outputs": [
        {
          "internalType": "uint256",
          "name": "",
          "type": "uint256"
        }
      ],
      "stateMutability": "view",
      "type": "function",
      "constant": true
    },
    {
      "inputs": [],
      "name": "totalRefunds",
      "outputs": [
        {
          "internalType": "uint256",
          "name": "",
          "type": "uint256"
        }
      ],
      "stateMutability": "view",
      "type": "function",
      "constant": true
    },
    {
      "inputs": [
        {
          "internalType": "uint256",
          "name": "_amount",
          "type": "uint256"
        }
      ],
      "name": "withdraw",
      "outputs": [
        {
          "internalType": "bool",
          "name": "success",
          "type": "bool"
        }
      ],
      "stateMutability": "nonpayable",
      "type": "function"
    },
    {
      "inputs": [
        {
          "internalType": "string",
          "name": "_opcode",
          "type": "string"
        },
        {
          "internalType": "uint256",
          "name": "_amount",
          "type": "uint256"
        }
      ],
      "name": "doBet",
      "outputs": [],
      "stateMutability": "nonpayable",
      "type": "function"
    },
    {
      "inputs": [
        {
          "internalType": "uint256",
          "name": "_betIndex",
          "type": "uint256"
        }
      ],
      "name": "refund",
      "outputs": [
        {
          "internalType": "bool",
          "name": "success",
          "type": "bool"
        }
      ],
      "stateMutability": "nonpayable",
      "type": "function"
    },
    {
      "inputs": [
        {
          "internalType": "uint256",
          "name": "_betIndex",
          "type": "uint256"
        },
        {
          "internalType": "string",
          "name": "_txId",
          "type": "string"
        }
      ],
      "name": "updateBetTx",
      "outputs": [
        {
          "internalType": "bool",
          "name": "success",
          "type": "bool"
        }
      ],
      "stateMutability": "nonpayable",
      "type": "function"
    },
    {
      "inputs": [
        {
          "internalType": "uint256",
          "name": "_betIndex",
          "type": "uint256"
        },
        {
          "internalType": "uint256",
          "name": "_payout",
          "type": "uint256"
        },
        {
          "internalType": "string",
          "name": "_payoutTx",
          "type": "string"
        }
      ],
      "name": "processPayout",
      "outputs": [
        {
          "internalType": "bool",
          "name": "success",
          "type": "bool"
        }
      ],
      "stateMutability": "nonpayable",
      "type": "function"
    }
  ],
  "bytecode": "0x608060405234801561001057600080fd5b50604051611ff6380380611ff68339818101604052602081101561003357600080fd5b8101908080519060200190929190505050806000806101000a81548173ffffffffffffffffffffffffffffffffffffffff021916908373ffffffffffffffffffffffffffffffffffffffff16021790555033600160006101000a81548173ffffffffffffffffffffffffffffffffffffffff021916908373ffffffffffffffffffffffffffffffffffffffff160217905550600160028190555060006003819055506000600481905550600060058190555050611f01806100f56000396000f3fe608060405234801561001057600080fd5b506004361061009e5760003560e01c8063532a5fe811610066578063532a5fe8146102425780635e68549414610451578063befa1e2f1461046f578063bf2a90ca1461048d578063fe84839c146105725761009e565b80631010746f146100a3578063278ecde11461017e5780632e1a7d4d146101c2578063318c803f14610206578063454f7b8f14610224575b600080fd5b610166600480360360408110156100b957600080fd5b8101908080359060200190929190803590602001906401000000008111156100e057600080fd5b8201836020820111156100f257600080fd5b8035906020019184600183028401116401000000008311171561011457600080fd5b91908080601f016020809104026020016040519081016040528093929190818152602001838380828437600081840152601f19601f820116905080830192505050505050509192919290505050610637565b60405180821515815260200191505060405180910390f35b6101aa6004803603602081101561019457600080fd5b8101908080359060200190929190505050610a68565b60405180821515815260200191505060405180910390f35b6101ee600480360360208110156101d857600080fd5b8101908080359060200190929190505050610ebd565b60405180821515815260200191505060405180910390f35b61020e6111b8565b6040518082815260200191505060405180910390f35b61022c6111be565b6040518082815260200191505060405180910390f35b61026e6004803603602081101561025857600080fd5b81019080803590602001909291905050506111c4565b604051808773ffffffffffffffffffffffffffffffffffffffff1681526020018060200186815260200180602001806020018060200185810385528a818151815260200191508051906020019080838360005b838110156102dc5780820151818401526020810190506102c1565b50505050905090810190601f1680156103095780820380516001836020036101000a031916815260200191505b50858103845288818151815260200191508051906020019080838360005b83811015610342578082015181840152602081019050610327565b50505050905090810190601f16801561036f5780820380516001836020036101000a031916815260200191505b50858103835287818151815260200191508051906020019080838360005b838110156103a857808201518184015260208101905061038d565b50505050905090810190601f1680156103d55780820380516001836020036101000a031916815260200191505b50858103825286818151815260200191508051906020019080838360005b8381101561040e5780820151818401526020810190506103f3565b50505050905090810190601f16801561043b5780820380516001836020036101000a031916815260200191505b509a505050505050505050505060405180910390f35b610459611480565b6040518082815260200191505060405180910390f35b610477611486565b6040518082815260200191505060405180910390f35b61055a600480360360608110156104a357600080fd5b810190808035906020019092919080359060200190929190803590602001906401000000008111156104d457600080fd5b8201836020820111156104e657600080fd5b8035906020019184600183028401116401000000008311171561050857600080fd5b91908080601f016020809104026020016040519081016040528093929190818152602001838380828437600081840152601f19601f82011690508083019250505050505050919291929050505061148c565b60405180821515815260200191505060405180910390f35b6106356004803603604081101561058857600080fd5b81019080803590602001906401000000008111156105a557600080fd5b8201836020820111156105b757600080fd5b803590602001918460018302840111640100000000831117156105d957600080fd5b91908080601f016020809104026020016040519081016040528093929190818152602001838380828437600081840152601f19601f820116905080830192505050505050509192919290803590602001909291905050506119e6565b005b6000600160009054906101000a900473ffffffffffffffffffffffffffffffffffffffff1673ffffffffffffffffffffffffffffffffffffffff163373ffffffffffffffffffffffffffffffffffffffff16146106fc576040517f08c379a000000000000000000000000000000000000000000000000000000000815260040180806020018281038252600a8152602001807f6f6e6c79206f776e65720000000000000000000000000000000000000000000081525060200191505060405180910390fd5b6002548310610773576040517f08c379a00000000000000000000000000000000000000000000000000000000081526004018080602001828103825260108152602001807f696e76616c696420626574496e6465780000000000000000000000000000000081525060200191505060405180910390fd5b60405160200180807f70656e64696e670000000000000000000000000000000000000000000000000081525060070190506040516020818303038152906040528051906020012060066000858152602001908152602001600020600501604051602001808280546001816001161561010002031660029004801561082e5780601f1061080c57610100808354040283529182019161082e565b820191906000526020600020905b81548152906001019060200180831161081a575b505091505060405160208183030381529060405280519060200120146108bc576040517f08c379a00000000000000000000000000000000000000000000000000000000081526004018080602001828103825260158152602001807f62657420616c72656164792070726f636573736564000000000000000000000081525060200191505060405180910390fd5b6000600660008581526020019081526020016000206003018054600181600116156101000203166002900490501461095c576040517f08c379a00000000000000000000000000000000000000000000000000000000081526004018080602001828103825260178152602001807f6265745478496420616c7265616479207570646174656400000000000000000081525060200191505060405180910390fd5b60008251116109d3576040517f08c379a00000000000000000000000000000000000000000000000000000000081526004018080602001828103825260148152602001807f747849642063616e6e6f7420626520656d70747900000000000000000000000081525060200191505060405180910390fd5b816006600085815260200190815260200160002060030190805190602001906109fd929190611e20565b506040518060400160405280600981526020017f70726f6365737365640000000000000000000000000000000000000000000000815250600660008581526020019081526020016000206005019080519060200190610a5d929190611e20565b506001905092915050565b6000600160009054906101000a900473ffffffffffffffffffffffffffffffffffffffff1673ffffffffffffffffffffffffffffffffffffffff163373ffffffffffffffffffffffffffffffffffffffff1614610b2d576040517f08c379a000000000000000000000000000000000000000000000000000000000815260040180806020018281038252600a8152602001807f6f6e6c79206f776e65720000000000000000000000000000000000000000000081525060200191505060405180910390fd5b6002548210610ba4576040517f08c379a00000000000000000000000000000000000000000000000000000000081526004018080602001828103825260108152602001807f696e76616c696420626574496e6465780000000000000000000000000000000081525060200191505060405180910390fd5b60405160200180807f70656e64696e6700000000000000000000000000000000000000000000000000815250600701905060405160208183030381529060405280519060200120600660008481526020019081526020016000206005016040516020018082805460018160011615610100020316600290048015610c5f5780601f10610c3d576101008083540402835291820191610c5f565b820191906000526020600020905b815481529060010190602001808311610c4b575b50509150506040516020818303038152906040528051906020012014610ced576040517f08c379a00000000000000000000000000000000000000000000000000000000081526004018080602001828103825260158152602001807f62657420616c72656164792070726f636573736564000000000000000000000081525060200191505060405180910390fd5b60006006600084815260200190815260200160002060000160009054906101000a900473ffffffffffffffffffffffffffffffffffffffff16905060006006600085815260200190815260200160002060020154905060008054906101000a900473ffffffffffffffffffffffffffffffffffffffff1673ffffffffffffffffffffffffffffffffffffffff1663a9059cbb83836040518363ffffffff1660e01b8152600401808373ffffffffffffffffffffffffffffffffffffffff16815260200182815260200192505050602060405180830381600087803b158015610dd457600080fd5b505af1158015610de8573d6000803e3d6000fd5b505050506040513d6020811015610dfe57600080fd5b8101908080519060200190929190505050506040518060400160405280600881526020017f726566756e646564000000000000000000000000000000000000000000000000815250600660008681526020019081526020016000206005019080519060200190610e6f929190611e20565b5080600454016004819055507f2e1897b0591d764356194f7a795238a87c1987c7a877568e50d829d547c92b97846040518082815260200191505060405180910390a1600192505050919050565b6000600160009054906101000a900473ffffffffffffffffffffffffffffffffffffffff1673ffffffffffffffffffffffffffffffffffffffff163373ffffffffffffffffffffffffffffffffffffffff1614610f82576040517f08c379a000000000000000000000000000000000000000000000000000000000815260040180806020018281038252600a8152602001807f6f6e6c79206f776e65720000000000000000000000000000000000000000000081525060200191505060405180910390fd5b60008060009054906101000a900473ffffffffffffffffffffffffffffffffffffffff1673ffffffffffffffffffffffffffffffffffffffff166370a08231306040518263ffffffff1660e01b8152600401808273ffffffffffffffffffffffffffffffffffffffff16815260200191505060206040518083038186803b15801561100c57600080fd5b505afa158015611020573d6000803e3d6000fd5b505050506040513d602081101561103657600080fd5b81019080805190602001909291905050509050828110156110bf576040517f08c379a000000000000000000000000000000000000000000000000000000000815260040180806020018281038252600e8152602001807f616d6f756e74206578636565647300000000000000000000000000000000000081525060200191505060405180910390fd5b60008054906101000a900473ffffffffffffffffffffffffffffffffffffffff1673ffffffffffffffffffffffffffffffffffffffff1663a9059cbb600160009054906101000a900473ffffffffffffffffffffffffffffffffffffffff16856040518363ffffffff1660e01b8152600401808373ffffffffffffffffffffffffffffffffffffffff16815260200182815260200192505050602060405180830381600087803b15801561117257600080fd5b505af1158015611186573d6000803e3d6000fd5b505050506040513d602081101561119c57600080fd5b8101908080519060200190929190505050506001915050919050565b60025481565b60055481565b60066020528060005260406000206000915090508060000160009054906101000a900473ffffffffffffffffffffffffffffffffffffffff1690806001018054600181600116156101000203166002900480601f0160208091040260200160405190810160405280929190818152602001828054600181600116156101000203166002900480156112965780601f1061126b57610100808354040283529160200191611296565b820191906000526020600020905b81548152906001019060200180831161127957829003601f168201915b505050505090806002015490806003018054600181600116156101000203166002900480601f01602080910402602001604051908101604052809291908181526020018280546001816001161561010002031660029004801561133a5780601f1061130f5761010080835404028352916020019161133a565b820191906000526020600020905b81548152906001019060200180831161131d57829003601f168201915b505050505090806004018054600181600116156101000203166002900480601f0160208091040260200160405190810160405280929190818152602001828054600181600116156101000203166002900480156113d85780601f106113ad576101008083540402835291602001916113d8565b820191906000526020600020905b8154815290600101906020018083116113bb57829003601f168201915b505050505090806005018054600181600116156101000203166002900480601f0160208091040260200160405190810160405280929190818152602001828054600181600116156101000203166002900480156114765780601f1061144b57610100808354040283529160200191611476565b820191906000526020600020905b81548152906001019060200180831161145957829003601f168201915b5050505050905086565b60045481565b60035481565b6000600160009054906101000a900473ffffffffffffffffffffffffffffffffffffffff1673ffffffffffffffffffffffffffffffffffffffff163373ffffffffffffffffffffffffffffffffffffffff1614611551576040517f08c379a000000000000000000000000000000000000000000000000000000000815260040180806020018281038252600a8152602001807f6f6e6c79206f776e65720000000000000000000000000000000000000000000081525060200191505060405180910390fd5b60025484106115c8576040517f08c379a00000000000000000000000000000000000000000000000000000000081526004018080602001828103825260108152602001807f696e76616c696420626574496e6465780000000000000000000000000000000081525060200191505060405180910390fd5b60405160200180807f70726f63657373656400000000000000000000000000000000000000000000008152506009019050604051602081830303815290604052805190602001206006600086815260200190815260200160002060050160405160200180828054600181600116156101000203166002900480156116835780601f10611661576101008083540402835291820191611683565b820191906000526020600020905b81548152906001019060200180831161166f575b50509150506040516020818303038152906040528051906020012014611711576040517f08c379a00000000000000000000000000000000000000000000000000000000081526004018080602001828103825260158152602001807f62657420616c72656164792070726f636573736564000000000000000000000081525060200191505060405180910390fd5b6000825111611788576040517f08c379a000000000000000000000000000000000000000000000000000000000815260040180806020018281038252601a8152602001807f7061796f7574547849642063616e6e6f7420626520656d70747900000000000081525060200191505060405180910390fd5b670de0b6b3a76400008311611805576040517f08c379a00000000000000000000000000000000000000000000000000000000081526004018080602001828103825260168152602001807f7061796f757420616d6f756e742072657175697265640000000000000000000081525060200191505060405180910390fd5b60006006600086815260200190815260200160002060000160009054906101000a900473ffffffffffffffffffffffffffffffffffffffff16905060008054906101000a900473ffffffffffffffffffffffffffffffffffffffff1673ffffffffffffffffffffffffffffffffffffffff1663a9059cbb82866040518363ffffffff1660e01b8152600401808373ffffffffffffffffffffffffffffffffffffffff16815260200182815260200192505050602060405180830381600087803b1580156118d157600080fd5b505af11580156118e5573d6000803e3d6000fd5b505050506040513d60208110156118fb57600080fd5b81019080805190602001909291905050505082600660008781526020019081526020016000206004019080519060200190611937929190611e20565b5083600554016005819055506040518060400160405280600981526020017f636f6d706c6574656400000000000000000000000000000000000000000000008152506006600087815260200190815260200160002060050190805190602001906119a2929190611e20565b507ffc48dccca823ac4545fa6198f02cf489810cfcab4ad1b84d24ae20a571fdc63d856040518082815260200191505060405180910390a160019150509392505050565b68015af1d78b58c40000811015611a65576040517f08c379a00000000000000000000000000000000000000000000000000000000081526004018080602001828103825260138152602001807f6d696e696d756d2062657420323520425747520000000000000000000000000081525060200191505060405180910390fd5b6006825111611adc576040517f08c379a000000000000000000000000000000000000000000000000000000000815260040180806020018281038252600e8152602001807f696e76616c6964206f70636f646500000000000000000000000000000000000081525060200191505060405180910390fd5b60008054906101000a900473ffffffffffffffffffffffffffffffffffffffff1673ffffffffffffffffffffffffffffffffffffffff166323b872dd3330846040518463ffffffff1660e01b8152600401808473ffffffffffffffffffffffffffffffffffffffff1681526020018373ffffffffffffffffffffffffffffffffffffffff1681526020018281526020019350505050602060405180830381600087803b158015611b8b57600080fd5b505af1158015611b9f573d6000803e3d6000fd5b505050506040513d6020811015611bb557600080fd5b8101908080519060200190929190505050506040518060c001604052803373ffffffffffffffffffffffffffffffffffffffff1681526020018381526020018281526020016040518060200160405280600081525081526020016040518060200160405280600081525081526020016040518060400160405280600781526020017f70656e64696e670000000000000000000000000000000000000000000000000081525081525060066000600254815260200190815260200160002060008201518160000160006101000a81548173ffffffffffffffffffffffffffffffffffffffff021916908373ffffffffffffffffffffffffffffffffffffffff1602179055506020820151816001019080519060200190611cd5929190611e20565b50604082015181600201556060820151816003019080519060200190611cfc929190611e20565b506080820151816004019080519060200190611d19929190611e20565b5060a0820151816005019080519060200190611d36929190611e20565b5090505080600354016003819055503373ffffffffffffffffffffffffffffffffffffffff167f557daea42272a8620a2b26099efc91a61267b2fac5b8727c3d0a259178321f0b60025484846040518084815260200180602001838152602001828103825284818151815260200191508051906020019080838360005b83811015611dce578082015181840152602081019050611db3565b50505050905090810190601f168015611dfb5780820380516001836020036101000a031916815260200191505b5094505050505060405180910390a26002600081548092919060010191905055505050565b828054600181600116156101000203166002900490600052602060002090601f016020900481019282611e565760008555611e9d565b82601f10611e6f57805160ff1916838001178555611e9d565b82800160010185558215611e9d579182015b82811115611e9c578251825591602001919060010190611e81565b5b509050611eaa9190611eae565b5090565b5b80821115611ec7576000816000905550600101611eaf565b509056fea264697066735822122041d4a50dd090987f116a0d101b18433a800aa05c384cf3fc7b1734b8461a719164736f6c63430007060033",
  "immutableReferences": {},
  "source": "pragma solidity >=0.6.0 <0.8.0;\nimport \"./IBEP20.sol\";\n\ncontract Betting {\n    IBEP20 private token;\n    address private owner;\n    uint256 public betIndex;\n    uint256 public totalBets;\n    uint256 public totalRefunds;\n    uint256 public totalPayout;\n\n    constructor(IBEP20 _token) {\n        token = _token;\n        owner = msg.sender;\n        betIndex = 1;\n        totalBets = 0;\n        totalRefunds = 0;\n        totalPayout = 0;\n    }\n\n    struct BetStruct {\n        address user;\n        string opcode;\n        uint256 value;\n        string betTxId;\n        string payoutTxId;\n        string finalStatus;\n    }\n\n    modifier onlyOwner {\n        //function caller must be contract owner\n        require(msg.sender == owner, \"only owner\");\n        _;\n    }\n\n    mapping(uint256 => BetStruct) public Bets;\n    event Bet(\n        uint256 betIndex,\n        address indexed user,\n        string opcode,\n        uint256 value\n    );\n    event Refund(uint256 betIndex);\n    event PayoutProcessed(uint256 betIndex);\n\n    // Function to withdraw all Ether from this contract.\n    function withdraw(uint256 _amount) public onlyOwner returns (bool success) {\n        // get the amount of Ether stored in this contract\n        uint256 amount = token.balanceOf(address(this));\n\n        require(amount >= _amount, \"amount exceeds\");\n\n        // send all token to owner\n        token.transfer(owner, _amount);\n        return true;\n    }\n\n    function doBet(string memory _opcode, uint256 _amount) public {\n        //check amount cannot be less then 25\n        require(_amount >= 25 ether, \"minimum bet 25 BWGR\");\n\n        //opcode required\n        require(bytes(_opcode).length > 6, \"invalid opcode\");\n\n        //transfer bet amount\n        token.transferFrom(msg.sender, address(this), _amount);\n\n        //store bet with action=pending\n        Bets[betIndex] = BetStruct(\n            msg.sender,\n            _opcode,\n            _amount,\n            \"\",\n            \"\",\n            \"pending\"\n        );\n\n        totalBets = totalBets + _amount;\n        //emit bet event\n        emit Bet(betIndex, msg.sender, _opcode, _amount);\n\n        //increase bet (index/count)\n        betIndex++;\n    }\n\n    function refund(uint256 _betIndex) public onlyOwner returns (bool success) {\n        //require valid betIndex\n        require(_betIndex < betIndex, \"invalid betIndex\");\n\n        //check final status should be pending.\n        require(\n            keccak256(abi.encodePacked(Bets[_betIndex].finalStatus)) ==\n                keccak256(abi.encodePacked(\"pending\")),\n            \"bet already processed\"\n        );\n\n        //get bet by index\n        address user = Bets[_betIndex].user;\n        uint256 amount = Bets[_betIndex].value;\n\n        //refund full bet amount to user\n        token.transfer(user, amount);\n\n        //update bet status\n        Bets[_betIndex].finalStatus = \"refunded\";\n        totalRefunds = totalRefunds + amount;\n\n        emit Refund(_betIndex);\n\n        return true;\n    }\n\n    function updateBetTx(uint256 _betIndex, string memory _txId)\n        public\n        onlyOwner\n        returns (bool success)\n    {\n        //require valid betIndex\n        require(_betIndex < betIndex, \"invalid betIndex\");\n\n        //check final status should be pending.\n        require(\n            keccak256(abi.encodePacked(Bets[_betIndex].finalStatus)) ==\n                keccak256(abi.encodePacked(\"pending\")),\n            \"bet already processed\"\n        );\n\n        //require txid empty\n        require(\n            bytes(Bets[_betIndex].betTxId).length == 0,\n            \"betTxId already updated\"\n        );\n\n        //require betTxId\n        require(bytes(_txId).length > 0, \"txId cannot be empty\");\n\n        Bets[_betIndex].betTxId = _txId;\n\n        //update bet status\n        Bets[_betIndex].finalStatus = \"processed\";\n\n        return true;\n    }\n\n    function processPayout(\n        uint256 _betIndex,\n        uint256 _payout,\n        string memory _payoutTx\n    ) public onlyOwner returns (bool success) {\n        //require valid betIndex\n        require(_betIndex < betIndex, \"invalid betIndex\");\n\n        //check final status should be pending.\n        require(\n            keccak256(abi.encodePacked(Bets[_betIndex].finalStatus)) ==\n                keccak256(abi.encodePacked(\"processed\")),\n            \"bet already processed\"\n        );\n\n        //require payoutTxId\n        require(bytes(_payoutTx).length > 0, \"payoutTxId cannot be empty\");\n\n        //required payout amount\n        require(_payout > 1 ether, \"payout amount required\");\n\n        //get bet by index\n        address user = Bets[_betIndex].user;\n\n        //send payout\n        token.transfer(user, _payout);\n\n        //store WGR chain payouttx id\n        Bets[_betIndex].payoutTxId = _payoutTx;\n\n        totalPayout = totalPayout + _payout;\n\n        //update bet status\n        Bets[_betIndex].finalStatus = \"completed\";\n\n        emit PayoutProcessed(_betIndex);\n\n        return true;\n    }\n}\n",
  "sourcePath": "/Users/pravin/MyProject/Wagerr_CrossChain_BSC/src/contracts/Betting.sol",
  "compiler": {
    "name": "solc",
    "version": "0.7.6+commit.7338295f.Emscripten.clang"
  },
  "schemaVersion": "3.4.1",
  "updatedAt": "2021-07-25T05:58:13.687Z",
  "networkType": "ethereum",
  "devdoc": {
    "kind": "dev",
    "methods": {},
    "version": 1
  },
  "userdoc": {
    "kind": "user",
    "methods": {},
    "version": 1
  }
}