{
  "_format": "hh-sol-artifact-1",
  "contractName": "BettingV4",
  "sourceName": "contracts/BettingV4.sol",
  "abi": [
    {
      "anonymous": false,
      "inputs": [
        {
          "indexed": false,
          "internalType": "address",
          "name": "previousAdmin",
          "type": "address"
        },
        {
          "indexed": false,
          "internalType": "address",
          "name": "newAdmin",
          "type": "address"
        }
      ],
      "name": "AdminChanged",
      "type": "event"
    },
    {
      "anonymous": false,
      "inputs": [
        {
          "indexed": true,
          "internalType": "address",
          "name": "beacon",
          "type": "address"
        }
      ],
      "name": "BeaconUpgraded",
      "type": "event"
    },
    {
      "anonymous": false,
      "inputs": [
        {
          "indexed": true,
          "internalType": "uint256",
          "name": "betIndex",
          "type": "uint256"
        },
        {
          "indexed": true,
          "internalType": "address",
          "name": "user",
          "type": "address"
        },
        {
          "indexed": false,
          "internalType": "string",
          "name": "opcode",
          "type": "string"
        },
        {
          "indexed": false,
          "internalType": "uint256",
          "name": "wgrAmount",
          "type": "uint256"
        },
        {
          "indexed": false,
          "internalType": "string",
          "name": "coin",
          "type": "string"
        },
        {
          "indexed": false,
          "internalType": "uint256",
          "name": "coinAmount",
          "type": "uint256"
        },
        {
          "indexed": false,
          "internalType": "uint256",
          "name": "timestamp",
          "type": "uint256"
        },
        {
          "indexed": false,
          "internalType": "string",
          "name": "finalStatus",
          "type": "string"
        }
      ],
      "name": "Bet",
      "type": "event"
    },
    {
      "anonymous": false,
      "inputs": [
        {
          "indexed": true,
          "internalType": "address",
          "name": "previousOwner",
          "type": "address"
        },
        {
          "indexed": true,
          "internalType": "address",
          "name": "newOwner",
          "type": "address"
        }
      ],
      "name": "OwnershipTransferred",
      "type": "event"
    },
    {
      "anonymous": false,
      "inputs": [
        {
          "indexed": true,
          "internalType": "uint256",
          "name": "betIndex",
          "type": "uint256"
        },
        {
          "indexed": false,
          "internalType": "uint256",
          "name": "wgrAmount",
          "type": "uint256"
        },
        {
          "indexed": false,
          "internalType": "string",
          "name": "coin",
          "type": "string"
        },
        {
          "indexed": false,
          "internalType": "uint256",
          "name": "coinAmount",
          "type": "uint256"
        },
        {
          "indexed": false,
          "internalType": "uint256",
          "name": "timestamp",
          "type": "uint256"
        },
        {
          "indexed": false,
          "internalType": "string",
          "name": "wgrResultType",
          "type": "string"
        },
        {
          "indexed": false,
          "internalType": "string",
          "name": "wgrPayoutTx",
          "type": "string"
        },
        {
          "indexed": false,
          "internalType": "string",
          "name": "finalStatus",
          "type": "string"
        }
      ],
      "name": "Payout",
      "type": "event"
    },
    {
      "anonymous": false,
      "inputs": [
        {
          "indexed": true,
          "internalType": "uint256",
          "name": "betIndex",
          "type": "uint256"
        },
        {
          "indexed": false,
          "internalType": "uint256",
          "name": "wgrAmount",
          "type": "uint256"
        },
        {
          "indexed": false,
          "internalType": "string",
          "name": "coin",
          "type": "string"
        },
        {
          "indexed": false,
          "internalType": "uint256",
          "name": "coinAmount",
          "type": "uint256"
        },
        {
          "indexed": false,
          "internalType": "uint256",
          "name": "timestamp",
          "type": "uint256"
        },
        {
          "indexed": false,
          "internalType": "string",
          "name": "finalStatus",
          "type": "string"
        }
      ],
      "name": "Refund",
      "type": "event"
    },
    {
      "anonymous": false,
      "inputs": [
        {
          "indexed": true,
          "internalType": "address",
          "name": "implementation",
          "type": "address"
        }
      ],
      "name": "Upgraded",
      "type": "event"
    },
    {
      "anonymous": false,
      "inputs": [
        {
          "indexed": true,
          "internalType": "uint256",
          "name": "betIndex",
          "type": "uint256"
        },
        {
          "indexed": false,
          "internalType": "string",
          "name": "wgrBetTx",
          "type": "string"
        },
        {
          "indexed": false,
          "internalType": "string",
          "name": "finalStatus",
          "type": "string"
        }
      ],
      "name": "WgrBetTxUpdated",
      "type": "event"
    },
    {
      "inputs": [
        {
          "internalType": "uint256",
          "name": "",
          "type": "uint256"
        }
      ],
      "name": "Bets",
      "outputs": [
        {
          "internalType": "address",
          "name": "user",
          "type": "address"
        },
        {
          "internalType": "string",
          "name": "opcode",
          "type": "string"
        },
        {
          "internalType": "uint256",
          "name": "wgrAmount",
          "type": "uint256"
        },
        {
          "internalType": "string",
          "name": "coin",
          "type": "string"
        },
        {
          "internalType": "uint256",
          "name": "coinAmount",
          "type": "uint256"
        },
        {
          "internalType": "string",
          "name": "wgrBetTx",
          "type": "string"
        },
        {
          "internalType": "string",
          "name": "payoutTxId",
          "type": "string"
        },
        {
          "internalType": "string",
          "name": "finalStatus",
          "type": "string"
        }
      ],
      "stateMutability": "view",
      "type": "function"
    },
    {
      "inputs": [
        {
          "internalType": "string",
          "name": "",
          "type": "string"
        }
      ],
      "name": "Coins",
      "outputs": [
        {
          "internalType": "address",
          "name": "",
          "type": "address"
        }
      ],
      "stateMutability": "view",
      "type": "function"
    },
    {
      "inputs": [
        {
          "internalType": "string",
          "name": "_symbol",
          "type": "string"
        },
        {
          "internalType": "address",
          "name": "_coinAddress",
          "type": "address"
        }
      ],
      "name": "addCoin",
      "outputs": [],
      "stateMutability": "nonpayable",
      "type": "function"
    },
    {
      "inputs": [],
      "name": "betIndex",
      "outputs": [
        {
          "internalType": "uint256",
          "name": "",
          "type": "uint256"
        }
      ],
      "stateMutability": "view",
      "type": "function"
    },
    {
      "inputs": [
        {
          "internalType": "string",
          "name": "_opcode",
          "type": "string"
        }
      ],
      "name": "betWithBNB",
      "outputs": [],
      "stateMutability": "payable",
      "type": "function"
    },
    {
      "inputs": [
        {
          "internalType": "string",
          "name": "_opcode",
          "type": "string"
        },
        {
          "internalType": "string",
          "name": "_tokenFrom",
          "type": "string"
        },
        {
          "internalType": "uint256",
          "name": "_amount",
          "type": "uint256"
        }
      ],
      "name": "betWithToken",
      "outputs": [],
      "stateMutability": "nonpayable",
      "type": "function"
    },
    {
      "inputs": [
        {
          "internalType": "string",
          "name": "_opcode",
          "type": "string"
        },
        {
          "internalType": "uint256",
          "name": "_amount",
          "type": "uint256"
        }
      ],
      "name": "betWithWGR",
      "outputs": [],
      "stateMutability": "nonpayable",
      "type": "function"
    },
    {
      "inputs": [
        {
          "internalType": "address",
          "name": "_coin",
          "type": "address"
        }
      ],
      "name": "convertFeeToCoin",
      "outputs": [
        {
          "internalType": "uint256",
          "name": "",
          "type": "uint256"
        }
      ],
      "stateMutability": "view",
      "type": "function"
    },
    {
      "inputs": [],
      "name": "fee",
      "outputs": [
        {
          "internalType": "uint256",
          "name": "",
          "type": "uint256"
        }
      ],
      "stateMutability": "view",
      "type": "function"
    },
    {
      "inputs": [
        {
          "internalType": "address",
          "name": "_tokenIn",
          "type": "address"
        },
        {
          "internalType": "address",
          "name": "_tokenOut",
          "type": "address"
        },
        {
          "internalType": "uint256",
          "name": "_amountOut",
          "type": "uint256"
        }
      ],
      "name": "getAmountInMin",
      "outputs": [
        {
          "internalType": "uint256",
          "name": "",
          "type": "uint256"
        }
      ],
      "stateMutability": "view",
      "type": "function"
    },
    {
      "inputs": [
        {
          "internalType": "address",
          "name": "_token",
          "type": "address"
        },
        {
          "internalType": "address",
          "name": "_wbnb",
          "type": "address"
        },
        {
          "internalType": "address",
          "name": "_pancakeRouter",
          "type": "address"
        }
      ],
      "name": "initialize",
      "outputs": [],
      "stateMutability": "nonpayable",
      "type": "function"
    },
    {
      "inputs": [],
      "name": "isBettingEnabled",
      "outputs": [
        {
          "internalType": "bool",
          "name": "",
          "type": "bool"
        }
      ],
      "stateMutability": "view",
      "type": "function"
    },
    {
      "inputs": [],
      "name": "onOff",
      "outputs": [],
      "stateMutability": "nonpayable",
      "type": "function"
    },
    {
      "inputs": [],
      "name": "owner",
      "outputs": [
        {
          "internalType": "address",
          "name": "",
          "type": "address"
        }
      ],
      "stateMutability": "view",
      "type": "function"
    },
    {
      "inputs": [
        {
          "internalType": "uint256",
          "name": "_betIndex",
          "type": "uint256"
        },
        {
          "internalType": "uint256",
          "name": "_payout",
          "type": "uint256"
        },
        {
          "internalType": "string",
          "name": "_payoutTx",
          "type": "string"
        },
        {
          "internalType": "string",
          "name": "_resultType",
          "type": "string"
        }
      ],
      "name": "processPayout",
      "outputs": [
        {
          "internalType": "bool",
          "name": "",
          "type": "bool"
        }
      ],
      "stateMutability": "nonpayable",
      "type": "function"
    },
    {
      "inputs": [
        {
          "internalType": "uint256",
          "name": "_betIndex",
          "type": "uint256"
        }
      ],
      "name": "refund",
      "outputs": [
        {
          "internalType": "bool",
          "name": "",
          "type": "bool"
        }
      ],
      "stateMutability": "nonpayable",
      "type": "function"
    },
    {
      "inputs": [
        {
          "internalType": "string",
          "name": "_symbol",
          "type": "string"
        }
      ],
      "name": "removeCoin",
      "outputs": [],
      "stateMutability": "nonpayable",
      "type": "function"
    },
    {
      "inputs": [],
      "name": "renounceOwnership",
      "outputs": [],
      "stateMutability": "nonpayable",
      "type": "function"
    },
    {
      "inputs": [
        {
          "internalType": "uint256",
          "name": "_fee",
          "type": "uint256"
        }
      ],
      "name": "setFee",
      "outputs": [],
      "stateMutability": "nonpayable",
      "type": "function"
    },
    {
      "inputs": [
        {
          "internalType": "string",
          "name": "",
          "type": "string"
        }
      ],
      "name": "totalBets",
      "outputs": [
        {
          "internalType": "uint256",
          "name": "",
          "type": "uint256"
        }
      ],
      "stateMutability": "view",
      "type": "function"
    },
    {
      "inputs": [
        {
          "internalType": "string",
          "name": "",
          "type": "string"
        }
      ],
      "name": "totalPayout",
      "outputs": [
        {
          "internalType": "uint256",
          "name": "",
          "type": "uint256"
        }
      ],
      "stateMutability": "view",
      "type": "function"
    },
    {
      "inputs": [
        {
          "internalType": "string",
          "name": "",
          "type": "string"
        }
      ],
      "name": "totalRefunds",
      "outputs": [
        {
          "internalType": "uint256",
          "name": "",
          "type": "uint256"
        }
      ],
      "stateMutability": "view",
      "type": "function"
    },
    {
      "inputs": [
        {
          "internalType": "address",
          "name": "newOwner",
          "type": "address"
        }
      ],
      "name": "transferOwnership",
      "outputs": [],
      "stateMutability": "nonpayable",
      "type": "function"
    },
    {
      "inputs": [
        {
          "internalType": "address",
          "name": "_newRouter",
          "type": "address"
        }
      ],
      "name": "updatePancakeRouter",
      "outputs": [],
      "stateMutability": "nonpayable",
      "type": "function"
    },
    {
      "inputs": [
        {
          "internalType": "uint256",
          "name": "_betIndex",
          "type": "uint256"
        },
        {
          "internalType": "string",
          "name": "_txId",
          "type": "string"
        }
      ],
      "name": "updateWgrBetTx",
      "outputs": [
        {
          "internalType": "bool",
          "name": "",
          "type": "bool"
        }
      ],
      "stateMutability": "nonpayable",
      "type": "function"
    },
    {
      "inputs": [
        {
          "internalType": "address",
          "name": "newImplementation",
          "type": "address"
        }
      ],
      "name": "upgradeTo",
      "outputs": [],
      "stateMutability": "nonpayable",
      "type": "function"
    },
    {
      "inputs": [
        {
          "internalType": "address",
          "name": "newImplementation",
          "type": "address"
        },
        {
          "internalType": "bytes",
          "name": "data",
          "type": "bytes"
        }
      ],
      "name": "upgradeToAndCall",
      "outputs": [],
      "stateMutability": "payable",
      "type": "function"
    },
    {
      "inputs": [],
      "name": "version",
      "outputs": [
        {
          "internalType": "string",
          "name": "",
          "type": "string"
        }
      ],
      "stateMutability": "view",
      "type": "function"
    },
    {
      "inputs": [
        {
          "internalType": "uint256",
          "name": "_amount",
          "type": "uint256"
        }
      ],
      "name": "withdraw",
      "outputs": [
        {
          "internalType": "bool",
          "name": "",
          "type": "bool"
        }
      ],
      "stateMutability": "nonpayable",
      "type": "function"
    }
  ],
  "bytecode": "0x608060405234801561001057600080fd5b506145ae806100206000396000f3fe6080604052600436106101c25760003560e01c806371b7270c116100f7578063b8ec0f8211610095578063d880cd8511610064578063d880cd8514610573578063ddca3f4314610593578063f2fde38b146105a9578063f9c86329146105c9576101c2565b8063b8ec0f82146104d2578063bfbca4c9146104f2578063c0c53b8b14610533578063c392079f14610553576101c2565b80639122366b116100d15780639122366b146104515780639ddc4e6714610464578063aef0e4ac14610479578063aff7dad9146104b1576101c2565b806371b7270c146103df5780637c108ae8146103ff5780638da5cb5b1461041f576101c2565b8063393f1f8d1161016457806354fd4d501161013e57806354fd4d501461035957806368e191041461038a57806369fe0e2d146103aa578063715018a6146103ca576101c2565b8063393f1f8d146102f25780634f1ef28614610312578063532a5fe814610325576101c2565b80632e1a7d4d116101a05780632e1a7d4d1461027a578063318c803f1461029a5780633482dc12146102b05780633659cfe6146102d0576101c2565b80630aee5381146101c7578063278ecde11461021257806328a5e20f14610242575b600080fd5b3480156101d357600080fd5b506101ff6101e2366004613d71565b805160208183018101805160ce8252928201919093012091525481565b6040519081526020015b60405180910390f35b34801561021e57600080fd5b5061023261022d366004613db7565b6105e9565b6040519015158152602001610209565b34801561024e57600080fd5b506101ff61025d366004613d71565b805160208183018101805160cd8252928201919093012091525481565b34801561028657600080fd5b50610232610295366004613db7565b610d54565b3480156102a657600080fd5b506101ff60ca5481565b3480156102bc57600080fd5b506102326102cb366004613de7565b610e6e565b3480156102dc57600080fd5b506102f06102eb366004613a6f565b61106a565b005b3480156102fe57600080fd5b506101ff61030d366004613a6f565b611091565b6102f0610320366004613b06565b6110d3565b34801561033157600080fd5b50610345610340366004613db7565b6110ec565b60405161020998979695949392919061405c565b34801561036557600080fd5b5060408051808201825260028152611d8d60f21b602082015290516102099190614222565b34801561039657600080fd5b506101ff6103a5366004613acb565b6113df565b3480156103b657600080fd5b506102f06103c5366004613db7565b61165e565b3480156103d657600080fd5b506102f061168d565b3480156103eb57600080fd5b506102f06103fa366004613c6d565b6116c3565b34801561040b57600080fd5b5061023261041a366004613e31565b611734565b34801561042b57600080fd5b506097546001600160a01b03165b6040516001600160a01b039091168152602001610209565b6102f061045f366004613c2d565b61215d565b34801561047057600080fd5b506102f06123bc565b34801561048557600080fd5b506101ff610494366004613d71565b805160208183018101805160cc8252928201919093012091525481565b3480156104bd57600080fd5b5060d15461023290600160a01b900460ff1681565b3480156104de57600080fd5b506102f06104ed366004613cb6565b612407565b3480156104fe57600080fd5b5061043961050d366004613d71565b805160208183018101805160cb825292820191909301209152546001600160a01b031681565b34801561053f57600080fd5b506102f061054e366004613a89565b61274f565b34801561055f57600080fd5b506102f061056e366004613c2d565b61282a565b34801561057f57600080fd5b506102f061058e366004613a6f565b612887565b34801561059f57600080fd5b506101ff60d25481565b3480156105b557600080fd5b506102f06105c4366004613a6f565b6128d3565b3480156105d557600080fd5b506102f06105e4366004613d27565b61296b565b6097546000906001600160a01b0316331461061f5760405162461bcd60e51b8152600401610616906142da565b60405180910390fd5b60ca5482106106405760405162461bcd60e51b8152600401610616906142b0565b6040516670656e64696e6760c81b602082015260270160408051601f198184030181528282528051602091820120600086815260d3835292909220919261068b926007019101613fed565b60405160208183030381529060405280519060200120146106e65760405162461bcd60e51b815260206004820152601560248201527418995d08185b1c9958591e481c1c9bd8d95cdcd959605a1b6044820152606401610616565b600082815260d36020526040812080546002820154600390920180546001600160a01b039092169391610718906144d5565b80601f0160208091040260200160405190810160405280929190818152602001828054610744906144d5565b80156107915780601f1061076657610100808354040283529160200191610791565b820191906000526020600020905b81548152906001019060200180831161077457829003601f168201915b50505050509050604051806040016040528060088152602001671c99599d5b99195960c21b81525060d3600087815260200190815260200160002060070190805190602001906107e29291906138ac565b508160cd6040516107fe90641d1bdd185b60da1b815260050190565b9081526020016040518091039020600082825461081b919061447a565b909155505060d1546000906108439061083c906001600160a01b0316611091565b8490612a87565b604051622ba3a960e91b6020820152909350602301604051602081830303815290604052805190602001208260405160200161087f9190613fc1565b6040516020818303038152906040528051906020012014156108f5578260cd6040516108b490622ba3a960e91b815260030190565b908152602001604051809103902060008282546108d1919061447a565b909155505060c9548391506108f0906001600160a01b03168583612a93565b610cf1565b6040516221272160e91b6020820152602301604051602081830303815290604052805190602001208260405160200161092e9190613fc1565b604051602081830303815290604052805190602001201415610aea57604080516002808252606082018352600092602083019080368337505060d15482519293506001600160a01b03169183915060009061099957634e487b7160e01b600052603260045260246000fd5b6001600160a01b03928316602091820292909201015260d0548251911690829060019081106109d857634e487b7160e01b600052603260045260246000fd5b6001600160a01b03928316602091820292909201015260d15460d054610a0392918216911686612afb565b91508160cd84604051610a169190613fc1565b90815260200160405180910390206000828254610a33919061447a565b909155505060cf5460c954610a55916001600160a01b03918216911686612d73565b60cf546040516318cbafe560e01b81526001600160a01b03909116906318cbafe590610a8d908790869086908b90429060040161440d565b600060405180830381600087803b158015610aa757600080fd5b505af1158015610abb573d6000803e3d6000fd5b505050506040513d6000823e601f3d908101601f19168201604052610ae39190810190613b65565b5050610cf1565b600060cb83604051610afc9190613fc1565b908152604080519182900360209081018320546003808552608085019093526001600160a01b0316935060009291908201606080368337505060d15482519293506001600160a01b031691839150600090610b6757634e487b7160e01b600052603260045260246000fd5b6001600160a01b03928316602091820292909201015260d054825191169082906001908110610ba657634e487b7160e01b600052603260045260246000fd5b60200260200101906001600160a01b031690816001600160a01b0316815250508181600281518110610be857634e487b7160e01b600052603260045260246000fd5b6001600160a01b03928316602091820292909201015260d154610c0d91168387612afb565b92508260cd85604051610c209190613fc1565b90815260200160405180910390206000828254610c3d919061447a565b909155505060cf5460c954610c5f916001600160a01b03918216911687612d73565b60cf546040516338ed173960e01b81526001600160a01b03909116906338ed173990610c97908890879086908c90429060040161440d565b600060405180830381600087803b158015610cb157600080fd5b505af1158015610cc5573d6000803e3d6000fd5b505050506040513d6000823e601f3d908101601f19168201604052610ced9190810190613b65565b5050505b857f538175b9af59591bb250a8268e3b72f5f7cf7eb297d43a69fcfaaf79ea8963b08484844260d360008d8152602001908152602001600020600701604051610d3e9594939291906143ca565b60405180910390a260019450505050505b919050565b6097546000906001600160a01b03163314610d815760405162461bcd60e51b8152600401610616906142da565b60c9546040516370a0823160e01b81523060048201526000916001600160a01b0316906370a082319060240160206040518083038186803b158015610dc557600080fd5b505afa158015610dd9573d6000803e3d6000fd5b505050506040513d601f19601f82011682018060405250810190610dfd9190613dcf565b905082811015610e405760405162461bcd60e51b815260206004820152600e60248201526d616d6f756e74206578636565647360901b6044820152606401610616565b610e68610e556097546001600160a01b031690565b60c9546001600160a01b03169085612a93565b50919050565b6097546000906001600160a01b03163314610e9b5760405162461bcd60e51b8152600401610616906142da565b60ca548410610ebc5760405162461bcd60e51b8152600401610616906142b0565b6040516670656e64696e6760c81b602082015260270160408051601f198184030181528282528051602091820120600088815260d38352929092209192610f07926007019101613fed565b6040516020818303038152906040528051906020012014610f6a5760405162461bcd60e51b815260206004820152601860248201527f776772426574547820616c7265616479207570646174656400000000000000006044820152606401610616565b81610fae5760405162461bcd60e51b8152602060048201526014602482015273747849642063616e6e6f7420626520656d70747960601b6044820152606401610616565b600084815260d360205260409020610fca906005018484613930565b5060408051808201825260098152681c1c9bd8d95cdcd95960ba1b6020808301918252600088815260d390915292909220905161100d92600790920191906138ac565b50837feaa98b798f321a8dd9ac259b306d344abad5573ccce303bab7f1d5f6e2c0fe0c848460d36000898152602001908152602001600020600701604051611057939291906140ec565b60405180910390a25060015b9392505050565b61107381612e97565b61108e81604051806020016040528060008152506000612ec1565b50565b60d0546000906001600160a01b03838116911614156110b3575060d254610d4f565b60d05460d254600091611063916001600160a01b03909116908590612afb565b6110dc82612e97565b6110e882826001612ec1565b5050565b60d360205260009081526040902080546001820180546001600160a01b039092169291611118906144d5565b80601f0160208091040260200160405190810160405280929190818152602001828054611144906144d5565b80156111915780601f1061116657610100808354040283529160200191611191565b820191906000526020600020905b81548152906001019060200180831161117457829003601f168201915b5050505050908060020154908060030180546111ac906144d5565b80601f01602080910402602001604051908101604052809291908181526020018280546111d8906144d5565b80156112255780601f106111fa57610100808354040283529160200191611225565b820191906000526020600020905b81548152906001019060200180831161120857829003601f168201915b505050505090806004015490806005018054611240906144d5565b80601f016020809104026020016040519081016040528092919081815260200182805461126c906144d5565b80156112b95780601f1061128e576101008083540402835291602001916112b9565b820191906000526020600020905b81548152906001019060200180831161129c57829003601f168201915b5050505050908060060180546112ce906144d5565b80601f01602080910402602001604051908101604052809291908181526020018280546112fa906144d5565b80156113475780601f1061131c57610100808354040283529160200191611347565b820191906000526020600020905b81548152906001019060200180831161132a57829003601f168201915b50505050509080600701805461135c906144d5565b80601f0160208091040260200160405190810160405280929190818152602001828054611388906144d5565b80156113d55780601f106113aa576101008083540402835291602001916113d5565b820191906000526020600020905b8154815290600101906020018083116113b857829003601f168201915b5050505050905088565b60d0546000906060906001600160a01b038681169116148061140e575060d0546001600160a01b038581169116145b156114bc576040805160028082526060820183529091602083019080368337019050509050848160008151811061145557634e487b7160e01b600052603260045260246000fd5b60200260200101906001600160a01b031690816001600160a01b031681525050838160018151811061149757634e487b7160e01b600052603260045260246000fd5b60200260200101906001600160a01b031690816001600160a01b0316815250506115a1565b60408051600380825260808201909252906020820160608036833701905050905084816000815181106114ff57634e487b7160e01b600052603260045260246000fd5b6001600160a01b03928316602091820292909201015260d05482519116908290600190811061153e57634e487b7160e01b600052603260045260246000fd5b60200260200101906001600160a01b031690816001600160a01b031681525050838160028151811061158057634e487b7160e01b600052603260045260246000fd5b60200260200101906001600160a01b031690816001600160a01b0316815250505b60cf546040516307c0329d60e21b81526000916001600160a01b031690631f00ca74906115d4908790869060040161430f565b60006040518083038186803b1580156115ec57600080fd5b505afa158015611600573d6000803e3d6000fd5b505050506040513d6000823e601f3d908101601f191682016040526116289190810190613b65565b90508060008151811061164b57634e487b7160e01b600052603260045260246000fd5b6020026020010151925050509392505050565b6097546001600160a01b031633146116885760405162461bcd60e51b8152600401610616906142da565b60d255565b6097546001600160a01b031633146116b75760405162461bcd60e51b8152600401610616906142da565b6116c16000613049565b565b6097546001600160a01b031633146116ed5760405162461bcd60e51b8152600401610616906142da565b8060cb8484604051611700929190613fdd565b90815260405190819003602001902080546001600160a01b03929092166001600160a01b0319909216919091179055505050565b6097546000906001600160a01b031633146117615760405162461bcd60e51b8152600401610616906142da565b60ca5487106117825760405162461bcd60e51b8152600401610616906142b0565b600087815260d360205260408120600301805461179e906144d5565b80601f01602080910402602001604051908101604052809291908181526020018280546117ca906144d5565b80156118175780601f106117ec57610100808354040283529160200191611817565b820191906000526020600020905b8154815290600101906020018083116117fa57829003601f168201915b50505050509050600060d360008a81526020019081526020016000206007018054611841906144d5565b80601f016020809104026020016040519081016040528092919081815260200182805461186d906144d5565b80156118ba5780601f1061188f576101008083540402835291602001916118ba565b820191906000526020600020905b81548152906001019060200180831161189d57829003601f168201915b50505050509050600087878080601f0160208091040260200160405190810160405280939291908181526020018383808284376000920182905250604080516020601f8d018190048102820181019092528b8152959650909493508a92508991508190840183828082843760009201919091525050604051681c1c9bd8d95cdcd95960ba1b60208201529293508c9260290191506119559050565b604051602081830303815290604052805190602001208460405160200161197c9190613fc1565b60405160208183030381529060405280519060200120146119e95760405162461bcd60e51b815260206004820152602160248201527f626574206e6f742070726f63657373656420796574206f7220726566756e64656044820152601960fa1b6064820152608401610616565b6000835111611a3a5760405162461bcd60e51b815260206004820152601a60248201527f7061796f7574547849642063616e6e6f7420626520656d7074790000000000006044820152606401610616565b6000825111611a8b5760405162461bcd60e51b815260206004820152601a60248201527f726573756c74547970652063616e6e6f7420626520656d7074790000000000006044820152606401610616565b670de0b6b3a76400008111611adb5760405162461bcd60e51b81526020600482015260166024820152751c185e5bdd5d08185b5bdd5b9d081c995c5d5a5c995960521b6044820152606401610616565b60008c815260d3602090815260409091208451611b00926006909201918601906138ac565b508060ce604051611b1c90641d1bdd185b60da1b815260050190565b90815260200160405180910390206000828254611b39919061447a565b925050819055506040518060400160405280600981526020016818dbdb5c1b195d195960ba1b81525060d360008e81526020019081526020016000206007019080519060200190611b8b9291906138ac565b5060008c815260d3602052604090206007018054611ba8906144d5565b80601f0160208091040260200160405190810160405280929190818152602001828054611bd4906144d5565b8015611c215780601f10611bf657610100808354040283529160200191611c21565b820191906000526020600020905b815481529060010190602001808311611c0457829003601f168201915b50505060008f815260d3602052604081205460d1549498506001600160a01b0390811694919350611c57925061083c9116611091565b604051622ba3a960e91b60208201529093506023016040516020818303038152906040528051906020012087604051602001611c939190613fc1565b604051602081830303815290604052805190602001201415611d09578260ce604051611cc890622ba3a960e91b815260030190565b90815260200160405180910390206000828254611ce5919061447a565b909155505060c954839150611d04906001600160a01b03168383612a93565b612105565b6040516221272160e91b60208201526023016040516020818303038152906040528051906020012087604051602001611d429190613fc1565b604051602081830303815290604052805190602001201415611efe57604080516002808252606082018352600092602083019080368337505060d15482519293506001600160a01b031691839150600090611dad57634e487b7160e01b600052603260045260246000fd5b6001600160a01b03928316602091820292909201015260d054825191169082906001908110611dec57634e487b7160e01b600052603260045260246000fd5b6001600160a01b03928316602091820292909201015260d15460d054611e1792918216911686612afb565b91508160ce89604051611e2a9190613fc1565b90815260200160405180910390206000828254611e47919061447a565b909155505060cf5460c954611e69916001600160a01b03918216911686612d73565b60cf546040516318cbafe560e01b81526001600160a01b03909116906318cbafe590611ea1908790869086908990429060040161440d565b600060405180830381600087803b158015611ebb57600080fd5b505af1158015611ecf573d6000803e3d6000fd5b505050506040513d6000823e601f3d908101601f19168201604052611ef79190810190613b65565b5050612105565b600060cb88604051611f109190613fc1565b908152604080519182900360209081018320546003808552608085019093526001600160a01b0316935060009291908201606080368337505060d15482519293506001600160a01b031691839150600090611f7b57634e487b7160e01b600052603260045260246000fd5b6001600160a01b03928316602091820292909201015260d054825191169082906001908110611fba57634e487b7160e01b600052603260045260246000fd5b60200260200101906001600160a01b031690816001600160a01b0316815250508181600281518110611ffc57634e487b7160e01b600052603260045260246000fd5b6001600160a01b03928316602091820292909201015260d15461202191168387612afb565b92508260ce8a6040516120349190613fc1565b90815260200160405180910390206000828254612051919061447a565b909155505060cf5460c954612073916001600160a01b03918216911687612d73565b60cf546040516338ed173960e01b81526001600160a01b03909116906338ed1739906120ab908890879086908a90429060040161440d565b600060405180830381600087803b1580156120c557600080fd5b505af11580156120d9573d6000803e3d6000fd5b505050506040513d6000823e601f3d908101601f191682016040526121019190810190613b65565b5050505b8d7ffb4971a747286c595578f176a94f183642af9de4b4eaea7d66f8621d0eb4b83c84898442898b8d604051612141979695949392919061435d565b60405180910390a25060019d9c50505050505050505050505050565b60d154600160a01b900460ff16151560011461218b5760405162461bcd60e51b815260040161061690614283565b60d05460d1546000916121ab916001600160a01b03918216911634612afb565b60d1549091506121ce906121c7906001600160a01b0316611091565b8290612a87565b9050600061222f8285858080601f0160208091040260200160405190810160405280939291908181526020018383808284376000920191909152505060408051808201909152600381526221272160e91b602082015233925090503461309b565b6040805160028082526060820183529293506000929091602083019080368337505060d05482519293506001600160a01b03169183915060009061228357634e487b7160e01b600052603260045260246000fd5b6001600160a01b03928316602091820292909201015260d1548251911690829060019081106122c257634e487b7160e01b600052603260045260246000fd5b6001600160a01b03928316602091820292909201015260cf54604051637ff36ab560e01b8152911690637ff36ab5903490612307908790869030904290600401614328565b6000604051808303818588803b15801561232057600080fd5b505af1158015612334573d6000803e3d6000fd5b50505050506040513d6000823e601f3d908101601f1916820160405261235d9190810190613b65565b50600082815260d36020526040908190209051339184917f346a2c4fc2a593dc2b1a1be9b51110a8dce6be1d26249555fee555dd40840742916123ad918a918a918a913491429160070190614169565b60405180910390a35050505050565b6097546001600160a01b031633146123e65760405162461bcd60e51b8152600401610616906142da565b60d1805460ff60a01b198116600160a01b9182900460ff1615909102179055565b60d154600160a01b900460ff1615156001146124355760405162461bcd60e51b815260040161061690614283565b600060cb8484604051612449929190613fdd565b908152604051908190036020019020546001600160a01b03169050806124a65760405162461bcd60e51b815260206004820152601260248201527110dbda5b881b9bdd081cdd5c1c1bdc9d195960721b6044820152606401610616565b60d1546000906124c19083906001600160a01b031685612afb565b60d1549091506124dd906121c7906001600160a01b0316611091565b905060006125598289898080601f01602080910402602001604051908101604052809392919081815260200183838082843760009201919091525050604080516020601f8d018190048102820181019092528b815233935091508b908b90819084018382808284376000920191909152508b925061309b915050565b90506125706001600160a01b038416333087613315565b60cf5461258a906001600160a01b03858116911686612d73565b604080516003808252608082019092526000916020820160608036833701905050905083816000815181106125cf57634e487b7160e01b600052603260045260246000fd5b6001600160a01b03928316602091820292909201015260d05482519116908290600190811061260e57634e487b7160e01b600052603260045260246000fd5b6001600160a01b03928316602091820292909201015260d15482519116908290600290811061264d57634e487b7160e01b600052603260045260246000fd5b6001600160a01b03928316602091820292909201015260cf546040516338ed173960e01b81529116906338ed173990612692908890879086903090429060040161440d565b600060405180830381600087803b1580156126ac57600080fd5b505af11580156126c0573d6000803e3d6000fd5b505050506040513d6000823e601f3d908101601f191682016040526126e89190810190613b65565b50600082815260d36020526040908190209051339184917f346a2c4fc2a593dc2b1a1be9b51110a8dce6be1d26249555fee555dd408407429161273c918e918e918a918f918f918f9142916007019061411c565b60405180910390a3505050505050505050565b600054610100900460ff1680612768575060005460ff16155b6127845760405162461bcd60e51b815260040161061690614235565b600054610100900460ff161580156127a6576000805461ffff19166101011790555b60c980546001600160a01b038087166001600160a01b03199283168117909355600160ca5560cf805486831690841617905560d080549187169190921617905560d180546001600160a81b031916909117600160a01b1790556603966d0a63180060d25561281261334d565b8015612824576000805461ff00191690555b50505050565b6097546001600160a01b031633146128545760405162461bcd60e51b8152600401610616906142da565b60cb8282604051612866929190613fdd565b90815260405190819003602001902080546001600160a01b03191690555050565b6097546001600160a01b031633146128b15760405162461bcd60e51b8152600401610616906142da565b60cf80546001600160a01b0319166001600160a01b0392909216919091179055565b6097546001600160a01b031633146128fd5760405162461bcd60e51b8152600401610616906142da565b6001600160a01b0381166129625760405162461bcd60e51b815260206004820152602660248201527f4f776e61626c653a206e6577206f776e657220697320746865207a65726f206160448201526564647265737360d01b6064820152608401610616565b61108e81613049565b60d154600160a01b900460ff1615156001146129995760405162461bcd60e51b815260040161061690614283565b60d1546000906129bc906129b5906001600160a01b0316611091565b8390612a87565b90506000612a1d8286868080601f016020809104026020016040519081016040528093929190818152602001838380828437600092019190915250506040805180820190915260038152622ba3a960e91b602082015233925090508661309b565b60c954909150612a38906001600160a01b0316333086613315565b600081815260d36020526040908190209051339183917f346a2c4fc2a593dc2b1a1be9b51110a8dce6be1d26249555fee555dd40840742916123ad918a918a9189918b914291600701906141cc565b60006110638284614492565b6040516001600160a01b038316602482015260448101829052612af690849063a9059cbb60e01b906064015b60408051601f198184030181529190526020810180516001600160e01b03166001600160e01b0319909316929092179091526133c8565b505050565b60d0546000906060906001600160a01b0386811691161480612b2a575060d0546001600160a01b038581169116145b15612bd85760408051600280825260608201835290916020830190803683370190505090508481600081518110612b7157634e487b7160e01b600052603260045260246000fd5b60200260200101906001600160a01b031690816001600160a01b0316815250508381600181518110612bb357634e487b7160e01b600052603260045260246000fd5b60200260200101906001600160a01b031690816001600160a01b031681525050612cbd565b6040805160038082526080820190925290602082016060803683370190505090508481600081518110612c1b57634e487b7160e01b600052603260045260246000fd5b6001600160a01b03928316602091820292909201015260d054825191169082906001908110612c5a57634e487b7160e01b600052603260045260246000fd5b60200260200101906001600160a01b031690816001600160a01b0316815250508381600281518110612c9c57634e487b7160e01b600052603260045260246000fd5b60200260200101906001600160a01b031690816001600160a01b0316815250505b60cf5460405163d06ca61f60e01b81526000916001600160a01b03169063d06ca61f90612cf0908790869060040161430f565b60006040518083038186803b158015612d0857600080fd5b505afa158015612d1c573d6000803e3d6000fd5b505050506040513d6000823e601f3d908101601f19168201604052612d449190810190613b65565b90508060018351612d559190614492565b8151811061164b57634e487b7160e01b600052603260045260246000fd5b801580612dfc5750604051636eb1769f60e11b81523060048201526001600160a01b03838116602483015284169063dd62ed3e9060440160206040518083038186803b158015612dc257600080fd5b505afa158015612dd6573d6000803e3d6000fd5b505050506040513d601f19601f82011682018060405250810190612dfa9190613dcf565b155b612e675760405162461bcd60e51b815260206004820152603660248201527f5361666542455032303a20617070726f76652066726f6d206e6f6e2d7a65726f60448201527520746f206e6f6e2d7a65726f20616c6c6f77616e636560501b6064820152608401610616565b6040516001600160a01b038316602482015260448101829052612af690849063095ea7b360e01b90606401612abf565b6097546001600160a01b0316331461108e5760405162461bcd60e51b8152600401610616906142da565b6000612ef47f360894a13ba1a3210667c828492db98dca3e2076cc3735a920a3ca505d382bbc546001600160a01b031690565b9050612eff8461349a565b600083511180612f0c5750815b15612f1d57612f1b848461353f565b505b7f4910fdfa16fed3260ed0e7147f7cc6da11a60208b5b9406d12a635614ffd9143805460ff1661304257805460ff191660011781556040516001600160a01b0383166024820152612f9c90869060440160408051601f198184030181529190526020810180516001600160e01b0316631b2ce7f360e11b17905261353f565b50805460ff191681557f360894a13ba1a3210667c828492db98dca3e2076cc3735a920a3ca505d382bbc546001600160a01b038381169116146130395760405162461bcd60e51b815260206004820152602f60248201527f45524331393637557067726164653a207570677261646520627265616b73206660448201526e75727468657220757067726164657360881b6064820152608401610616565b6130428561362a565b5050505050565b609780546001600160a01b038381166001600160a01b0319831681179093556040519116919082907f8be0079c531659141344cd1fd0a4f28419497f9722a3daafe3b4186f6b6457e090600090a35050565b600068056bc75e2d6310000086101580156130c0575069021e19e0c9bab24000008611155b61310c5760405162461bcd60e51b815260206004820152601e60248201527f286d696e2f6d6178292062657420283130302f313030303029204257475200006044820152606401610616565b600685511161314e5760405162461bcd60e51b815260206004820152600e60248201526d696e76616c6964206f70636f646560901b6044820152606401610616565b60408051610100810182526001600160a01b03868116825260208083018981528385018b9052606084018890526080840187905284518083018652600080825260a08601919091528551808401875281815260c086015285518087018752600781526670656e64696e6760c81b8185015260e086015260ca54815260d3835294909420835181546001600160a01b031916931692909217825592518051929391926131ff92600185019201906138ac565b5060408201516002820155606082015180516132259160038401916020909101906138ac565b506080820151600482015560a0820151805161324b9160058401916020909101906138ac565b5060c082015180516132679160068401916020909101906138ac565b5060e082015180516132839160078401916020909101906138ac565b5050604051641d1bdd185b60da1b815287915060cc90600501908152602001604051809103902060008282546132b9919061447a565b925050819055508160cc846040516132d19190613fc1565b908152602001604051809103902060008282546132ee919061447a565b909155505060ca805490819060006133058361450a565b9091555090979650505050505050565b6040516001600160a01b03808516602483015283166044820152606481018290526128249085906323b872dd60e01b90608401612abf565b600054610100900460ff1680613366575060005460ff16155b6133825760405162461bcd60e51b815260040161061690614235565b600054610100900460ff161580156133a4576000805461ffff19166101011790555b6133ac61366a565b6133b46136d4565b801561108e576000805461ff001916905550565b600061341d826040518060400160405280602081526020017f5361666542455032303a206c6f772d6c6576656c2063616c6c206661696c6564815250856001600160a01b03166137349092919063ffffffff16565b805190915015612af6578080602001905181019061343b9190613c0d565b612af65760405162461bcd60e51b815260206004820152602a60248201527f5361666542455032303a204245503230206f7065726174696f6e20646964206e6044820152691bdd081cdd58d8d9595960b21b6064820152608401610616565b803b6134fe5760405162461bcd60e51b815260206004820152602d60248201527f455243313936373a206e657720696d706c656d656e746174696f6e206973206e60448201526c1bdd08184818dbdb9d1c9858dd609a1b6064820152608401610616565b7f360894a13ba1a3210667c828492db98dca3e2076cc3735a920a3ca505d382bbc80546001600160a01b0319166001600160a01b0392909216919091179055565b6060823b61359e5760405162461bcd60e51b815260206004820152602660248201527f416464726573733a2064656c65676174652063616c6c20746f206e6f6e2d636f6044820152651b9d1c9858dd60d21b6064820152608401610616565b600080846001600160a01b0316846040516135b99190613fc1565b600060405180830381855af49150503d80600081146135f4576040519150601f19603f3d011682016040523d82523d6000602084013e6135f9565b606091505b509150915061362182826040518060600160405280602781526020016145526027913961374b565b95945050505050565b6136338161349a565b6040516001600160a01b038216907fbc7cd75a20ee27fd9adebab32041f755214dbc6bffa90cc0225b39da2e5c2d3b90600090a250565b600054610100900460ff1680613683575060005460ff16155b61369f5760405162461bcd60e51b815260040161061690614235565b600054610100900460ff161580156133b4576000805461ffff1916610101179055801561108e576000805461ff001916905550565b600054610100900460ff16806136ed575060005460ff16155b6137095760405162461bcd60e51b815260040161061690614235565b600054610100900460ff1615801561372b576000805461ffff19166101011790555b6133b433613049565b60606137438484600085613784565b949350505050565b6060831561375a575081611063565b82511561376a5782518084602001fd5b8160405162461bcd60e51b81526004016106169190614222565b6060824710156137e55760405162461bcd60e51b815260206004820152602660248201527f416464726573733a20696e73756666696369656e742062616c616e636520666f6044820152651c8818d85b1b60d21b6064820152608401610616565b843b6138335760405162461bcd60e51b815260206004820152601d60248201527f416464726573733a2063616c6c20746f206e6f6e2d636f6e74726163740000006044820152606401610616565b600080866001600160a01b0316858760405161384f9190613fc1565b60006040518083038185875af1925050503d806000811461388c576040519150601f19603f3d011682016040523d82523d6000602084013e613891565b606091505b50915091506138a182828661374b565b979650505050505050565b8280546138b8906144d5565b90600052602060002090601f0160209004810192826138da5760008555613920565b82601f106138f357805160ff1916838001178555613920565b82800160010185558215613920579182015b82811115613920578251825591602001919060010190613905565b5061392c9291506139a4565b5090565b82805461393c906144d5565b90600052602060002090601f01602090048101928261395e5760008555613920565b82601f106139775782800160ff19823516178555613920565b82800160010185558215613920579182015b82811115613920578235825591602001919060010190613989565b5b8082111561392c57600081556001016139a5565b600067ffffffffffffffff8311156139d3576139d361453b565b6139e6601f8401601f1916602001614449565b90508281528383830111156139fa57600080fd5b828260208301376000602084830101529392505050565b80356001600160a01b0381168114610d4f57600080fd5b60008083601f840112613a39578182fd5b50813567ffffffffffffffff811115613a50578182fd5b602083019150836020828501011115613a6857600080fd5b9250929050565b600060208284031215613a80578081fd5b61106382613a11565b600080600060608486031215613a9d578182fd5b613aa684613a11565b9250613ab460208501613a11565b9150613ac260408501613a11565b90509250925092565b600080600060608486031215613adf578283fd5b613ae884613a11565b9250613af660208501613a11565b9150604084013590509250925092565b60008060408385031215613b18578182fd5b613b2183613a11565b9150602083013567ffffffffffffffff811115613b3c578182fd5b8301601f81018513613b4c578182fd5b613b5b858235602084016139b9565b9150509250929050565b60006020808385031215613b77578182fd5b825167ffffffffffffffff80821115613b8e578384fd5b818501915085601f830112613ba1578384fd5b815181811115613bb357613bb361453b565b8060051b9150613bc4848301614449565b8181528481019084860184860187018a1015613bde578788fd5b8795505b83861015613c00578051835260019590950194918601918601613be2565b5098975050505050505050565b600060208284031215613c1e578081fd5b81518015158114611063578182fd5b60008060208385031215613c3f578182fd5b823567ffffffffffffffff811115613c55578283fd5b613c6185828601613a28565b90969095509350505050565b600080600060408486031215613c81578283fd5b833567ffffffffffffffff811115613c97578384fd5b613ca386828701613a28565b9094509250613ac2905060208501613a11565b600080600080600060608688031215613ccd578081fd5b853567ffffffffffffffff80821115613ce4578283fd5b613cf089838a01613a28565b90975095506020880135915080821115613d08578283fd5b50613d1588828901613a28565b96999598509660400135949350505050565b600080600060408486031215613d3b578283fd5b833567ffffffffffffffff811115613d51578384fd5b613d5d86828701613a28565b909790965060209590950135949350505050565b600060208284031215613d82578081fd5b813567ffffffffffffffff811115613d98578182fd5b8201601f81018413613da8578182fd5b613743848235602084016139b9565b600060208284031215613dc8578081fd5b5035919050565b600060208284031215613de0578081fd5b5051919050565b600080600060408486031215613dfb578081fd5b83359250602084013567ffffffffffffffff811115613e18578182fd5b613e2486828701613a28565b9497909650939450505050565b60008060008060008060808789031215613e49578384fd5b8635955060208701359450604087013567ffffffffffffffff80821115613e6e578586fd5b613e7a8a838b01613a28565b90965094506060890135915080821115613e92578283fd5b50613e9f89828a01613a28565b979a9699509497509295939492505050565b6000815180845260208085019450808401835b83811015613ee95781516001600160a01b031687529582019590820190600101613ec4565b509495945050505050565b60008284528282602086013780602084860101526020601f19601f85011685010190509392505050565b60008151808452613f368160208601602086016144a9565b601f01601f19169290920160200192915050565b60008154613f57816144d5565b808552602060018381168015613f745760018114613f8857613fb6565b60ff19851688840152604088019550613fb6565b866000528260002060005b85811015613fae5781548a8201860152908301908401613f93565b890184019650505b505050505092915050565b60008251613fd38184602087016144a9565b9190910192915050565b6000828483379101908152919050565b6000808354613ffb816144d5565b60018281168015614013576001811461402457614050565b60ff19841687528287019450614050565b8786526020808720875b858110156140475781548a82015290840190820161402e565b50505082870194505b50929695505050505050565b6001600160a01b0389168152610100602082018190526000906140818382018b613f1e565b9050886040840152828103606084015261409b8189613f1e565b905086608084015282810360a08401526140b58187613f1e565b905082810360c08401526140c98186613f1e565b905082810360e08401526140dd8185613f1e565b9b9a5050505050505050505050565b600060408252614100604083018587613ef4565b82810360208401526141128185613f4a565b9695505050505050565b600060c0825261413060c083018a8c613ef4565b886020840152828103604084015261414981888a613ef4565b905085606084015284608084015282810360a08401526140dd8185613f4a565b600060c0825261417d60c08301888a613ef4565b866020840152828103806040850152600382526221272160e91b60208301528660608501528560808501526040810160a0850152506141bf6040820185613f4a565b9998505050505050505050565b600060c082526141e060c08301888a613ef4565b86602084015282810380604085015260038252622ba3a960e91b60208301528660608501528560808501526040810160a0850152506141bf6040820185613f4a565b6000602082526110636020830184613f1e565b6020808252602e908201527f496e697469616c697a61626c653a20636f6e747261637420697320616c72656160408201526d191e481a5b9a5d1a585b1a5e995960921b606082015260800190565b60208082526013908201527210995d1d1a5b99c81a5cc8191a5cd8589b1959606a1b604082015260600190565b60208082526010908201526f0d2dcecc2d8d2c840c4cae892dcc8caf60831b604082015260600190565b6020808252818101527f4f776e61626c653a2063616c6c6572206973206e6f7420746865206f776e6572604082015260600190565b6000838252604060208301526137436040830184613eb1565b6000858252608060208301526143416080830186613eb1565b6001600160a01b03949094166040830152506060015292915050565b600088825260e0602083015261437660e0830189613f1e565b87604084015286606084015282810360808401526143948187613f1e565b905082810360a08401526143a88186613f1e565b905082810360c08401526143bc8185613f1e565b9a9950505050505050505050565b600086825260a060208301526143e360a0830187613f1e565b85604084015284606084015282810360808401526144018185613f4a565b98975050505050505050565b600086825285602083015260a0604083015261442c60a0830186613eb1565b6001600160a01b0394909416606083015250608001529392505050565b604051601f8201601f1916810167ffffffffffffffff811182821017156144725761447261453b565b604052919050565b6000821982111561448d5761448d614525565b500190565b6000828210156144a4576144a4614525565b500390565b60005b838110156144c45781810151838201526020016144ac565b838111156128245750506000910152565b600181811c908216806144e957607f821691505b60208210811415610e6857634e487b7160e01b600052602260045260246000fd5b600060001982141561451e5761451e614525565b5060010190565b634e487b7160e01b600052601160045260246000fd5b634e487b7160e01b600052604160045260246000fdfe416464726573733a206c6f772d6c6576656c2064656c65676174652063616c6c206661696c6564a26469706673582212200a07a5567e0d5e9e11731efc3cdc52c7e04845e1c611b19ae5f4100ab4816d4564736f6c63430008030033",
  "linkReferences": {},
  "deployedLinkReferences": {}
}