{
  "_format": "hh-sol-artifact-1",
  "contractName": "BettingV4",
  "sourceName": "contracts/BettingV4.sol",
  "abi": [
    {
      "anonymous": false,
      "inputs": [
        {
          "indexed": false,
          "internalType": "address",
          "name": "previousAdmin",
          "type": "address"
        },
        {
          "indexed": false,
          "internalType": "address",
          "name": "newAdmin",
          "type": "address"
        }
      ],
      "name": "AdminChanged",
      "type": "event"
    },
    {
      "anonymous": false,
      "inputs": [
        {
          "indexed": true,
          "internalType": "address",
          "name": "beacon",
          "type": "address"
        }
      ],
      "name": "BeaconUpgraded",
      "type": "event"
    },
    {
      "anonymous": false,
      "inputs": [
        {
          "indexed": true,
          "internalType": "uint256",
          "name": "betIndex",
          "type": "uint256"
        },
        {
          "indexed": true,
          "internalType": "address",
          "name": "user",
          "type": "address"
        },
        {
          "indexed": false,
          "internalType": "string",
          "name": "opcode",
          "type": "string"
        },
        {
          "indexed": false,
          "internalType": "uint256",
          "name": "wgrAmount",
          "type": "uint256"
        },
        {
          "indexed": false,
          "internalType": "string",
          "name": "coin",
          "type": "string"
        },
        {
          "indexed": false,
          "internalType": "uint256",
          "name": "coinAmount",
          "type": "uint256"
        },
        {
          "indexed": false,
          "internalType": "uint256",
          "name": "timestamp",
          "type": "uint256"
        },
        {
          "indexed": false,
          "internalType": "string",
          "name": "finalStatus",
          "type": "string"
        }
      ],
      "name": "Bet",
      "type": "event"
    },
    {
      "anonymous": false,
      "inputs": [
        {
          "indexed": true,
          "internalType": "address",
          "name": "previousOwner",
          "type": "address"
        },
        {
          "indexed": true,
          "internalType": "address",
          "name": "newOwner",
          "type": "address"
        }
      ],
      "name": "OwnershipTransferred",
      "type": "event"
    },
    {
      "anonymous": false,
      "inputs": [
        {
          "indexed": true,
          "internalType": "uint256",
          "name": "betIndex",
          "type": "uint256"
        },
        {
          "indexed": false,
          "internalType": "uint256",
          "name": "wgrAmount",
          "type": "uint256"
        },
        {
          "indexed": false,
          "internalType": "string",
          "name": "coin",
          "type": "string"
        },
        {
          "indexed": false,
          "internalType": "uint256",
          "name": "coinAmount",
          "type": "uint256"
        },
        {
          "indexed": false,
          "internalType": "uint256",
          "name": "timestamp",
          "type": "uint256"
        },
        {
          "indexed": false,
          "internalType": "string",
          "name": "wgrResultType",
          "type": "string"
        },
        {
          "indexed": false,
          "internalType": "string",
          "name": "wgrPayoutTx",
          "type": "string"
        },
        {
          "indexed": false,
          "internalType": "string",
          "name": "finalStatus",
          "type": "string"
        }
      ],
      "name": "Payout",
      "type": "event"
    },
    {
      "anonymous": false,
      "inputs": [
        {
          "indexed": true,
          "internalType": "uint256",
          "name": "betIndex",
          "type": "uint256"
        },
        {
          "indexed": false,
          "internalType": "uint256",
          "name": "wgrAmount",
          "type": "uint256"
        },
        {
          "indexed": false,
          "internalType": "string",
          "name": "coin",
          "type": "string"
        },
        {
          "indexed": false,
          "internalType": "uint256",
          "name": "coinAmount",
          "type": "uint256"
        },
        {
          "indexed": false,
          "internalType": "uint256",
          "name": "timestamp",
          "type": "uint256"
        },
        {
          "indexed": false,
          "internalType": "string",
          "name": "finalStatus",
          "type": "string"
        }
      ],
      "name": "Refund",
      "type": "event"
    },
    {
      "anonymous": false,
      "inputs": [
        {
          "indexed": true,
          "internalType": "address",
          "name": "implementation",
          "type": "address"
        }
      ],
      "name": "Upgraded",
      "type": "event"
    },
    {
      "anonymous": false,
      "inputs": [
        {
          "indexed": true,
          "internalType": "uint256",
          "name": "betIndex",
          "type": "uint256"
        },
        {
          "indexed": false,
          "internalType": "string",
          "name": "wgrBetTx",
          "type": "string"
        },
        {
          "indexed": false,
          "internalType": "string",
          "name": "finalStatus",
          "type": "string"
        }
      ],
      "name": "WgrBetTxUpdated",
      "type": "event"
    },
    {
      "inputs": [
        {
          "internalType": "uint256",
          "name": "",
          "type": "uint256"
        }
      ],
      "name": "Bets",
      "outputs": [
        {
          "internalType": "address",
          "name": "user",
          "type": "address"
        },
        {
          "internalType": "string",
          "name": "opcode",
          "type": "string"
        },
        {
          "internalType": "uint256",
          "name": "wgrAmount",
          "type": "uint256"
        },
        {
          "internalType": "string",
          "name": "coin",
          "type": "string"
        },
        {
          "internalType": "uint256",
          "name": "coinAmount",
          "type": "uint256"
        },
        {
          "internalType": "string",
          "name": "wgrBetTx",
          "type": "string"
        },
        {
          "internalType": "string",
          "name": "payoutTxId",
          "type": "string"
        },
        {
          "internalType": "string",
          "name": "finalStatus",
          "type": "string"
        }
      ],
      "stateMutability": "view",
      "type": "function"
    },
    {
      "inputs": [
        {
          "internalType": "string",
          "name": "",
          "type": "string"
        }
      ],
      "name": "Coins",
      "outputs": [
        {
          "internalType": "address",
          "name": "",
          "type": "address"
        }
      ],
      "stateMutability": "view",
      "type": "function"
    },
    {
      "inputs": [
        {
          "internalType": "string",
          "name": "_symbol",
          "type": "string"
        },
        {
          "internalType": "address",
          "name": "_coinAddress",
          "type": "address"
        }
      ],
      "name": "addCoin",
      "outputs": [],
      "stateMutability": "nonpayable",
      "type": "function"
    },
    {
      "inputs": [],
      "name": "betIndex",
      "outputs": [
        {
          "internalType": "uint256",
          "name": "",
          "type": "uint256"
        }
      ],
      "stateMutability": "view",
      "type": "function"
    },
    {
      "inputs": [
        {
          "internalType": "string",
          "name": "_opcode",
          "type": "string"
        }
      ],
      "name": "betWithNativeCoin",
      "outputs": [],
      "stateMutability": "payable",
      "type": "function"
    },
    {
      "inputs": [
        {
          "internalType": "string",
          "name": "_opcode",
          "type": "string"
        },
        {
          "internalType": "string",
          "name": "_tokenFrom",
          "type": "string"
        },
        {
          "internalType": "uint256",
          "name": "_amount",
          "type": "uint256"
        }
      ],
      "name": "betWithToken",
      "outputs": [],
      "stateMutability": "nonpayable",
      "type": "function"
    },
    {
      "inputs": [
        {
          "internalType": "string",
          "name": "_opcode",
          "type": "string"
        },
        {
          "internalType": "uint256",
          "name": "_amount",
          "type": "uint256"
        }
      ],
      "name": "betWithWGR",
      "outputs": [],
      "stateMutability": "nonpayable",
      "type": "function"
    },
    {
      "inputs": [
        {
          "internalType": "address",
          "name": "_coin",
          "type": "address"
        }
      ],
      "name": "convertFeeToCoin",
      "outputs": [
        {
          "internalType": "uint256",
          "name": "",
          "type": "uint256"
        }
      ],
      "stateMutability": "view",
      "type": "function"
    },
    {
      "inputs": [],
      "name": "fee",
      "outputs": [
        {
          "internalType": "uint256",
          "name": "",
          "type": "uint256"
        }
      ],
      "stateMutability": "view",
      "type": "function"
    },
    {
      "inputs": [
        {
          "internalType": "address",
          "name": "_tokenOut",
          "type": "address"
        },
        {
          "internalType": "address",
          "name": "_tokenIn",
          "type": "address"
        },
        {
          "internalType": "uint256",
          "name": "_amountOut",
          "type": "uint256"
        }
      ],
      "name": "getAmountInMin",
      "outputs": [
        {
          "internalType": "uint256",
          "name": "",
          "type": "uint256"
        }
      ],
      "stateMutability": "view",
      "type": "function"
    },
    {
      "inputs": [
        {
          "internalType": "address",
          "name": "_token",
          "type": "address"
        },
        {
          "internalType": "address",
          "name": "_wbnb",
          "type": "address"
        },
        {
          "internalType": "address",
          "name": "_exchangeRouter",
          "type": "address"
        }
      ],
      "name": "initialize",
      "outputs": [],
      "stateMutability": "nonpayable",
      "type": "function"
    },
    {
      "inputs": [],
      "name": "isBettingEnabled",
      "outputs": [
        {
          "internalType": "bool",
          "name": "",
          "type": "bool"
        }
      ],
      "stateMutability": "view",
      "type": "function"
    },
    {
      "inputs": [],
      "name": "onOff",
      "outputs": [],
      "stateMutability": "nonpayable",
      "type": "function"
    },
    {
      "inputs": [],
      "name": "owner",
      "outputs": [
        {
          "internalType": "address",
          "name": "",
          "type": "address"
        }
      ],
      "stateMutability": "view",
      "type": "function"
    },
    {
      "inputs": [
        {
          "internalType": "uint256",
          "name": "_betIndex",
          "type": "uint256"
        },
        {
          "internalType": "uint256",
          "name": "_payout",
          "type": "uint256"
        },
        {
          "internalType": "string",
          "name": "_payoutTx",
          "type": "string"
        },
        {
          "internalType": "string",
          "name": "_resultType",
          "type": "string"
        }
      ],
      "name": "processPayout",
      "outputs": [
        {
          "internalType": "bool",
          "name": "",
          "type": "bool"
        }
      ],
      "stateMutability": "nonpayable",
      "type": "function"
    },
    {
      "inputs": [
        {
          "internalType": "uint256",
          "name": "_betIndex",
          "type": "uint256"
        }
      ],
      "name": "refund",
      "outputs": [
        {
          "internalType": "bool",
          "name": "",
          "type": "bool"
        }
      ],
      "stateMutability": "nonpayable",
      "type": "function"
    },
    {
      "inputs": [
        {
          "internalType": "string",
          "name": "_symbol",
          "type": "string"
        }
      ],
      "name": "removeCoin",
      "outputs": [],
      "stateMutability": "nonpayable",
      "type": "function"
    },
    {
      "inputs": [],
      "name": "renounceOwnership",
      "outputs": [],
      "stateMutability": "nonpayable",
      "type": "function"
    },
    {
      "inputs": [
        {
          "internalType": "uint256",
          "name": "_fee",
          "type": "uint256"
        }
      ],
      "name": "setFee",
      "outputs": [],
      "stateMutability": "nonpayable",
      "type": "function"
    },
    {
      "inputs": [
        {
          "internalType": "string",
          "name": "",
          "type": "string"
        }
      ],
      "name": "totalBets",
      "outputs": [
        {
          "internalType": "uint256",
          "name": "",
          "type": "uint256"
        }
      ],
      "stateMutability": "view",
      "type": "function"
    },
    {
      "inputs": [
        {
          "internalType": "string",
          "name": "",
          "type": "string"
        }
      ],
      "name": "totalPayout",
      "outputs": [
        {
          "internalType": "uint256",
          "name": "",
          "type": "uint256"
        }
      ],
      "stateMutability": "view",
      "type": "function"
    },
    {
      "inputs": [
        {
          "internalType": "string",
          "name": "",
          "type": "string"
        }
      ],
      "name": "totalRefunds",
      "outputs": [
        {
          "internalType": "uint256",
          "name": "",
          "type": "uint256"
        }
      ],
      "stateMutability": "view",
      "type": "function"
    },
    {
      "inputs": [
        {
          "internalType": "address",
          "name": "newOwner",
          "type": "address"
        }
      ],
      "name": "transferOwnership",
      "outputs": [],
      "stateMutability": "nonpayable",
      "type": "function"
    },
    {
      "inputs": [
        {
          "internalType": "address",
          "name": "_newRouter",
          "type": "address"
        }
      ],
      "name": "updateExchangeRouter",
      "outputs": [],
      "stateMutability": "nonpayable",
      "type": "function"
    },
    {
      "inputs": [
        {
          "internalType": "uint256",
          "name": "_betIndex",
          "type": "uint256"
        },
        {
          "internalType": "string",
          "name": "_txId",
          "type": "string"
        }
      ],
      "name": "updateWgrBetTx",
      "outputs": [
        {
          "internalType": "bool",
          "name": "",
          "type": "bool"
        }
      ],
      "stateMutability": "nonpayable",
      "type": "function"
    },
    {
      "inputs": [
        {
          "internalType": "address",
          "name": "newImplementation",
          "type": "address"
        }
      ],
      "name": "upgradeTo",
      "outputs": [],
      "stateMutability": "nonpayable",
      "type": "function"
    },
    {
      "inputs": [
        {
          "internalType": "address",
          "name": "newImplementation",
          "type": "address"
        },
        {
          "internalType": "bytes",
          "name": "data",
          "type": "bytes"
        }
      ],
      "name": "upgradeToAndCall",
      "outputs": [],
      "stateMutability": "payable",
      "type": "function"
    },
    {
      "inputs": [],
      "name": "version",
      "outputs": [
        {
          "internalType": "string",
          "name": "",
          "type": "string"
        }
      ],
      "stateMutability": "view",
      "type": "function"
    },
    {
      "inputs": [
        {
          "internalType": "uint256",
          "name": "_amount",
          "type": "uint256"
        }
      ],
      "name": "withdraw",
      "outputs": [
        {
          "internalType": "bool",
          "name": "",
          "type": "bool"
        }
      ],
      "stateMutability": "nonpayable",
      "type": "function"
    }
  ],
  "bytecode": "0x608060405234801561001057600080fd5b506145e1806100206000396000f3fe6080604052600436106101c25760003560e01c806371b7270c116100f7578063bfbca4c911610095578063ddca3f4311610064578063ddca3f4314610573578063eec5cc8b14610589578063f2fde38b146105a9578063f9c86329146105c9576101c2565b8063bfbca4c9146104df578063c0c53b8b14610520578063c392079f14610540578063db89ef6814610560576101c2565b80639ddc4e67116100d15780639ddc4e6714610451578063aef0e4ac14610466578063aff7dad91461049e578063b8ec0f82146104bf576101c2565b806371b7270c146103df5780637c108ae8146103ff5780638da5cb5b1461041f576101c2565b8063393f1f8d1161016457806354fd4d501161013e57806354fd4d501461035957806368e191041461038a57806369fe0e2d146103aa578063715018a6146103ca576101c2565b8063393f1f8d146102f25780634f1ef28614610312578063532a5fe814610325576101c2565b80632e1a7d4d116101a05780632e1a7d4d1461027a578063318c803f1461029a5780633482dc12146102b05780633659cfe6146102d0576101c2565b80630aee5381146101c7578063278ecde11461021257806328a5e20f14610242575b600080fd5b3480156101d357600080fd5b506101ff6101e2366004613da4565b805160208183018101805160ce8252928201919093012091525481565b6040519081526020015b60405180910390f35b34801561021e57600080fd5b5061023261022d366004613dea565b6105e9565b6040519015158152602001610209565b34801561024e57600080fd5b506101ff61025d366004613da4565b805160208183018101805160cd8252928201919093012091525481565b34801561028657600080fd5b50610232610295366004613dea565b610d54565b3480156102a657600080fd5b506101ff60ca5481565b3480156102bc57600080fd5b506102326102cb366004613e1a565b610e6e565b3480156102dc57600080fd5b506102f06102eb366004613aa2565b61106a565b005b3480156102fe57600080fd5b506101ff61030d366004613aa2565b611091565b6102f0610320366004613b39565b6110d3565b34801561033157600080fd5b50610345610340366004613dea565b6110ec565b60405161020998979695949392919061408f565b34801561036557600080fd5b5060408051808201825260028152611d8d60f21b602082015290516102099190614255565b34801561039657600080fd5b506101ff6103a5366004613afe565b6113df565b3480156103b657600080fd5b506102f06103c5366004613dea565b61165e565b3480156103d657600080fd5b506102f061168d565b3480156103eb57600080fd5b506102f06103fa366004613ca0565b6116c3565b34801561040b57600080fd5b5061023261041a366004613e64565b611734565b34801561042b57600080fd5b506097546001600160a01b03165b6040516001600160a01b039091168152602001610209565b34801561045d57600080fd5b506102f061215d565b34801561047257600080fd5b506101ff610481366004613da4565b805160208183018101805160cc8252928201919093012091525481565b3480156104aa57600080fd5b5060d15461023290600160a01b900460ff1681565b3480156104cb57600080fd5b506102f06104da366004613ce9565b6121a8565b3480156104eb57600080fd5b506104396104fa366004613da4565b805160208183018101805160cb825292820191909301209152546001600160a01b031681565b34801561052c57600080fd5b506102f061053b366004613abc565b6124f7565b34801561054c57600080fd5b506102f061055b366004613c60565b6125d2565b6102f061056e366004613c60565b61262f565b34801561057f57600080fd5b506101ff60d25481565b34801561059557600080fd5b506102f06105a4366004613aa2565b612887565b3480156105b557600080fd5b506102f06105c4366004613aa2565b6128d3565b3480156105d557600080fd5b506102f06105e4366004613d5a565b61296b565b6097546000906001600160a01b0316331461061f5760405162461bcd60e51b81526004016106169061430d565b60405180910390fd5b60ca5482106106405760405162461bcd60e51b8152600401610616906142e3565b6040516670656e64696e6760c81b602082015260270160408051601f198184030181528282528051602091820120600086815260d3835292909220919261068b926007019101614020565b60405160208183030381529060405280519060200120146106e65760405162461bcd60e51b815260206004820152601560248201527418995d08185b1c9958591e481c1c9bd8d95cdcd959605a1b6044820152606401610616565b600082815260d36020526040812080546002820154600390920180546001600160a01b03909216939161071890614508565b80601f016020809104026020016040519081016040528092919081815260200182805461074490614508565b80156107915780601f1061076657610100808354040283529160200191610791565b820191906000526020600020905b81548152906001019060200180831161077457829003601f168201915b50505050509050604051806040016040528060088152602001671c99599d5b99195960c21b81525060d3600087815260200190815260200160002060070190805190602001906107e29291906138df565b508160cd6040516107fe90641d1bdd185b60da1b815260050190565b9081526020016040518091039020600082825461081b91906144ad565b909155505060d1546000906108439061083c906001600160a01b0316611091565b8490612a87565b604051622ba3a960e91b6020820152909350602301604051602081830303815290604052805190602001208260405160200161087f9190613ff4565b6040516020818303038152906040528051906020012014156108f5578260cd6040516108b490622ba3a960e91b815260030190565b908152602001604051809103902060008282546108d191906144ad565b909155505060c9548391506108f0906001600160a01b03168583612a93565b610cf1565b6040516221272160e91b6020820152602301604051602081830303815290604052805190602001208260405160200161092e9190613ff4565b604051602081830303815290604052805190602001201415610aea57604080516002808252606082018352600092602083019080368337505060d15482519293506001600160a01b03169183915060009061099957634e487b7160e01b600052603260045260246000fd5b6001600160a01b03928316602091820292909201015260d0548251911690829060019081106109d857634e487b7160e01b600052603260045260246000fd5b6001600160a01b03928316602091820292909201015260d15460d054610a0392918216911686612afb565b91508160cd84604051610a169190613ff4565b90815260200160405180910390206000828254610a3391906144ad565b909155505060cf5460c954610a55916001600160a01b03918216911686612d73565b60cf546040516318cbafe560e01b81526001600160a01b03909116906318cbafe590610a8d908790869086908b904290600401614440565b600060405180830381600087803b158015610aa757600080fd5b505af1158015610abb573d6000803e3d6000fd5b505050506040513d6000823e601f3d908101601f19168201604052610ae39190810190613b98565b5050610cf1565b600060cb83604051610afc9190613ff4565b908152604080519182900360209081018320546003808552608085019093526001600160a01b0316935060009291908201606080368337505060d15482519293506001600160a01b031691839150600090610b6757634e487b7160e01b600052603260045260246000fd5b6001600160a01b03928316602091820292909201015260d054825191169082906001908110610ba657634e487b7160e01b600052603260045260246000fd5b60200260200101906001600160a01b031690816001600160a01b0316815250508181600281518110610be857634e487b7160e01b600052603260045260246000fd5b6001600160a01b03928316602091820292909201015260d154610c0d91168387612afb565b92508260cd85604051610c209190613ff4565b90815260200160405180910390206000828254610c3d91906144ad565b909155505060cf5460c954610c5f916001600160a01b03918216911687612d73565b60cf546040516338ed173960e01b81526001600160a01b03909116906338ed173990610c97908890879086908c904290600401614440565b600060405180830381600087803b158015610cb157600080fd5b505af1158015610cc5573d6000803e3d6000fd5b505050506040513d6000823e601f3d908101601f19168201604052610ced9190810190613b98565b5050505b857f538175b9af59591bb250a8268e3b72f5f7cf7eb297d43a69fcfaaf79ea8963b08484844260d360008d8152602001908152602001600020600701604051610d3e9594939291906143fd565b60405180910390a260019450505050505b919050565b6097546000906001600160a01b03163314610d815760405162461bcd60e51b81526004016106169061430d565b60c9546040516370a0823160e01b81523060048201526000916001600160a01b0316906370a082319060240160206040518083038186803b158015610dc557600080fd5b505afa158015610dd9573d6000803e3d6000fd5b505050506040513d601f19601f82011682018060405250810190610dfd9190613e02565b905082811015610e405760405162461bcd60e51b815260206004820152600e60248201526d616d6f756e74206578636565647360901b6044820152606401610616565b610e68610e556097546001600160a01b031690565b60c9546001600160a01b03169085612a93565b50919050565b6097546000906001600160a01b03163314610e9b5760405162461bcd60e51b81526004016106169061430d565b60ca548410610ebc5760405162461bcd60e51b8152600401610616906142e3565b6040516670656e64696e6760c81b602082015260270160408051601f198184030181528282528051602091820120600088815260d38352929092209192610f07926007019101614020565b6040516020818303038152906040528051906020012014610f6a5760405162461bcd60e51b815260206004820152601860248201527f776772426574547820616c7265616479207570646174656400000000000000006044820152606401610616565b81610fae5760405162461bcd60e51b8152602060048201526014602482015273747849642063616e6e6f7420626520656d70747960601b6044820152606401610616565b600084815260d360205260409020610fca906005018484613963565b5060408051808201825260098152681c1c9bd8d95cdcd95960ba1b6020808301918252600088815260d390915292909220905161100d92600790920191906138df565b50837feaa98b798f321a8dd9ac259b306d344abad5573ccce303bab7f1d5f6e2c0fe0c848460d360008981526020019081526020016000206007016040516110579392919061411f565b60405180910390a25060015b9392505050565b61107381612e97565b61108e81604051806020016040528060008152506000612ec1565b50565b60d0546000906001600160a01b03838116911614156110b3575060d254610d4f565b60d05460d254600091611063916001600160a01b03909116908590612afb565b6110dc82612e97565b6110e882826001612ec1565b5050565b60d360205260009081526040902080546001820180546001600160a01b03909216929161111890614508565b80601f016020809104026020016040519081016040528092919081815260200182805461114490614508565b80156111915780601f1061116657610100808354040283529160200191611191565b820191906000526020600020905b81548152906001019060200180831161117457829003601f168201915b5050505050908060020154908060030180546111ac90614508565b80601f01602080910402602001604051908101604052809291908181526020018280546111d890614508565b80156112255780601f106111fa57610100808354040283529160200191611225565b820191906000526020600020905b81548152906001019060200180831161120857829003601f168201915b50505050509080600401549080600501805461124090614508565b80601f016020809104026020016040519081016040528092919081815260200182805461126c90614508565b80156112b95780601f1061128e576101008083540402835291602001916112b9565b820191906000526020600020905b81548152906001019060200180831161129c57829003601f168201915b5050505050908060060180546112ce90614508565b80601f01602080910402602001604051908101604052809291908181526020018280546112fa90614508565b80156113475780601f1061131c57610100808354040283529160200191611347565b820191906000526020600020905b81548152906001019060200180831161132a57829003601f168201915b50505050509080600701805461135c90614508565b80601f016020809104026020016040519081016040528092919081815260200182805461138890614508565b80156113d55780601f106113aa576101008083540402835291602001916113d5565b820191906000526020600020905b8154815290600101906020018083116113b857829003601f168201915b5050505050905088565b60d0546000906060906001600160a01b038581169116148061140e575060d0546001600160a01b038681169116145b156114bc576040805160028082526060820183529091602083019080368337019050509050848160008151811061145557634e487b7160e01b600052603260045260246000fd5b60200260200101906001600160a01b031690816001600160a01b031681525050838160018151811061149757634e487b7160e01b600052603260045260246000fd5b60200260200101906001600160a01b031690816001600160a01b0316815250506115a1565b60408051600380825260808201909252906020820160608036833701905050905084816000815181106114ff57634e487b7160e01b600052603260045260246000fd5b6001600160a01b03928316602091820292909201015260d05482519116908290600190811061153e57634e487b7160e01b600052603260045260246000fd5b60200260200101906001600160a01b031690816001600160a01b031681525050838160028151811061158057634e487b7160e01b600052603260045260246000fd5b60200260200101906001600160a01b031690816001600160a01b0316815250505b60cf546040516307c0329d60e21b81526000916001600160a01b031690631f00ca74906115d49087908690600401614342565b60006040518083038186803b1580156115ec57600080fd5b505afa158015611600573d6000803e3d6000fd5b505050506040513d6000823e601f3d908101601f191682016040526116289190810190613b98565b90508060008151811061164b57634e487b7160e01b600052603260045260246000fd5b6020026020010151925050509392505050565b6097546001600160a01b031633146116885760405162461bcd60e51b81526004016106169061430d565b60d255565b6097546001600160a01b031633146116b75760405162461bcd60e51b81526004016106169061430d565b6116c16000613049565b565b6097546001600160a01b031633146116ed5760405162461bcd60e51b81526004016106169061430d565b8060cb8484604051611700929190614010565b90815260405190819003602001902080546001600160a01b03929092166001600160a01b0319909216919091179055505050565b6097546000906001600160a01b031633146117615760405162461bcd60e51b81526004016106169061430d565b60ca5487106117825760405162461bcd60e51b8152600401610616906142e3565b600087815260d360205260408120600301805461179e90614508565b80601f01602080910402602001604051908101604052809291908181526020018280546117ca90614508565b80156118175780601f106117ec57610100808354040283529160200191611817565b820191906000526020600020905b8154815290600101906020018083116117fa57829003601f168201915b50505050509050600060d360008a8152602001908152602001600020600701805461184190614508565b80601f016020809104026020016040519081016040528092919081815260200182805461186d90614508565b80156118ba5780601f1061188f576101008083540402835291602001916118ba565b820191906000526020600020905b81548152906001019060200180831161189d57829003601f168201915b50505050509050600087878080601f0160208091040260200160405190810160405280939291908181526020018383808284376000920182905250604080516020601f8d018190048102820181019092528b8152959650909493508a92508991508190840183828082843760009201919091525050604051681c1c9bd8d95cdcd95960ba1b60208201529293508c9260290191506119559050565b604051602081830303815290604052805190602001208460405160200161197c9190613ff4565b60405160208183030381529060405280519060200120146119e95760405162461bcd60e51b815260206004820152602160248201527f626574206e6f742070726f63657373656420796574206f7220726566756e64656044820152601960fa1b6064820152608401610616565b6000835111611a3a5760405162461bcd60e51b815260206004820152601a60248201527f7061796f7574547849642063616e6e6f7420626520656d7074790000000000006044820152606401610616565b6000825111611a8b5760405162461bcd60e51b815260206004820152601a60248201527f726573756c74547970652063616e6e6f7420626520656d7074790000000000006044820152606401610616565b670de0b6b3a76400008111611adb5760405162461bcd60e51b81526020600482015260166024820152751c185e5bdd5d08185b5bdd5b9d081c995c5d5a5c995960521b6044820152606401610616565b60008c815260d3602090815260409091208451611b00926006909201918601906138df565b508060ce604051611b1c90641d1bdd185b60da1b815260050190565b90815260200160405180910390206000828254611b3991906144ad565b925050819055506040518060400160405280600981526020016818dbdb5c1b195d195960ba1b81525060d360008e81526020019081526020016000206007019080519060200190611b8b9291906138df565b5060008c815260d3602052604090206007018054611ba890614508565b80601f0160208091040260200160405190810160405280929190818152602001828054611bd490614508565b8015611c215780601f10611bf657610100808354040283529160200191611c21565b820191906000526020600020905b815481529060010190602001808311611c0457829003601f168201915b50505060008f815260d3602052604081205460d1549498506001600160a01b0390811694919350611c57925061083c9116611091565b604051622ba3a960e91b60208201529093506023016040516020818303038152906040528051906020012087604051602001611c939190613ff4565b604051602081830303815290604052805190602001201415611d09578260ce604051611cc890622ba3a960e91b815260030190565b90815260200160405180910390206000828254611ce591906144ad565b909155505060c954839150611d04906001600160a01b03168383612a93565b612105565b6040516221272160e91b60208201526023016040516020818303038152906040528051906020012087604051602001611d429190613ff4565b604051602081830303815290604052805190602001201415611efe57604080516002808252606082018352600092602083019080368337505060d15482519293506001600160a01b031691839150600090611dad57634e487b7160e01b600052603260045260246000fd5b6001600160a01b03928316602091820292909201015260d054825191169082906001908110611dec57634e487b7160e01b600052603260045260246000fd5b6001600160a01b03928316602091820292909201015260d15460d054611e1792918216911686612afb565b91508160ce89604051611e2a9190613ff4565b90815260200160405180910390206000828254611e4791906144ad565b909155505060cf5460c954611e69916001600160a01b03918216911686612d73565b60cf546040516318cbafe560e01b81526001600160a01b03909116906318cbafe590611ea19087908690869089904290600401614440565b600060405180830381600087803b158015611ebb57600080fd5b505af1158015611ecf573d6000803e3d6000fd5b505050506040513d6000823e601f3d908101601f19168201604052611ef79190810190613b98565b5050612105565b600060cb88604051611f109190613ff4565b908152604080519182900360209081018320546003808552608085019093526001600160a01b0316935060009291908201606080368337505060d15482519293506001600160a01b031691839150600090611f7b57634e487b7160e01b600052603260045260246000fd5b6001600160a01b03928316602091820292909201015260d054825191169082906001908110611fba57634e487b7160e01b600052603260045260246000fd5b60200260200101906001600160a01b031690816001600160a01b0316815250508181600281518110611ffc57634e487b7160e01b600052603260045260246000fd5b6001600160a01b03928316602091820292909201015260d15461202191168387612afb565b92508260ce8a6040516120349190613ff4565b9081526020016040518091039020600082825461205191906144ad565b909155505060cf5460c954612073916001600160a01b03918216911687612d73565b60cf546040516338ed173960e01b81526001600160a01b03909116906338ed1739906120ab908890879086908a904290600401614440565b600060405180830381600087803b1580156120c557600080fd5b505af11580156120d9573d6000803e3d6000fd5b505050506040513d6000823e601f3d908101601f191682016040526121019190810190613b98565b5050505b8d7ffb4971a747286c595578f176a94f183642af9de4b4eaea7d66f8621d0eb4b83c84898442898b8d6040516121419796959493929190614390565b60405180910390a25060019d9c50505050505050505050505050565b6097546001600160a01b031633146121875760405162461bcd60e51b81526004016106169061430d565b60d1805460ff60a01b198116600160a01b9182900460ff1615909102179055565b60d154600160a01b900460ff1615156001146121d65760405162461bcd60e51b8152600401610616906142b6565b600060cb84846040516121ea929190614010565b908152604051908190036020019020546001600160a01b03169050806122475760405162461bcd60e51b815260206004820152601260248201527110dbda5b881b9bdd081cdd5c1c1bdc9d195960721b6044820152606401610616565b60d1546000906122629083906001600160a01b031685612afb565b60d1549091506122859061227e906001600160a01b0316611091565b8290612a87565b905060006123018289898080601f01602080910402602001604051908101604052809392919081815260200183838082843760009201919091525050604080516020601f8d018190048102820181019092528b815233935091508b908b90819084018382808284376000920191909152508b925061309b915050565b90506123186001600160a01b038416333087613348565b60cf54612332906001600160a01b03858116911686612d73565b6040805160038082526080820190925260009160208201606080368337019050509050838160008151811061237757634e487b7160e01b600052603260045260246000fd5b6001600160a01b03928316602091820292909201015260d0548251911690829060019081106123b657634e487b7160e01b600052603260045260246000fd5b6001600160a01b03928316602091820292909201015260d1548251911690829060029081106123f557634e487b7160e01b600052603260045260246000fd5b6001600160a01b03928316602091820292909201015260cf546040516338ed173960e01b81529116906338ed17399061243a9088908790869030904290600401614440565b600060405180830381600087803b15801561245457600080fd5b505af1158015612468573d6000803e3d6000fd5b505050506040513d6000823e601f3d908101601f191682016040526124909190810190613b98565b50600082815260d36020526040908190209051339184917f346a2c4fc2a593dc2b1a1be9b51110a8dce6be1d26249555fee555dd40840742916124e4918e918e918a918f918f918f9142916007019061414f565b60405180910390a3505050505050505050565b600054610100900460ff1680612510575060005460ff16155b61252c5760405162461bcd60e51b815260040161061690614268565b600054610100900460ff1615801561254e576000805461ffff19166101011790555b60c980546001600160a01b038087166001600160a01b03199283168117909355600160ca5560cf805486831690841617905560d080549187169190921617905560d180546001600160a81b031916909117600160a01b1790556603966d0a63180060d2556125ba613380565b80156125cc576000805461ff00191690555b50505050565b6097546001600160a01b031633146125fc5760405162461bcd60e51b81526004016106169061430d565b60cb828260405161260e929190614010565b90815260405190819003602001902080546001600160a01b03191690555050565b60d154600160a01b900460ff16151560011461265d5760405162461bcd60e51b8152600401610616906142b6565b60d05460d15460009161267d916001600160a01b03918216911634612afb565b60d1549091506126999061227e906001600160a01b0316611091565b905060006126fa8285858080601f0160208091040260200160405190810160405280939291908181526020018383808284376000920191909152505060408051808201909152600381526221272160e91b602082015233925090503461309b565b6040805160028082526060820183529293506000929091602083019080368337505060d05482519293506001600160a01b03169183915060009061274e57634e487b7160e01b600052603260045260246000fd5b6001600160a01b03928316602091820292909201015260d15482519116908290600190811061278d57634e487b7160e01b600052603260045260246000fd5b6001600160a01b03928316602091820292909201015260cf54604051637ff36ab560e01b8152911690637ff36ab59034906127d290879086903090429060040161435b565b6000604051808303818588803b1580156127eb57600080fd5b505af11580156127ff573d6000803e3d6000fd5b50505050506040513d6000823e601f3d908101601f191682016040526128289190810190613b98565b50600082815260d36020526040908190209051339184917f346a2c4fc2a593dc2b1a1be9b51110a8dce6be1d26249555fee555dd4084074291612878918a918a918a91349142916007019061419c565b60405180910390a35050505050565b6097546001600160a01b031633146128b15760405162461bcd60e51b81526004016106169061430d565b60cf80546001600160a01b0319166001600160a01b0392909216919091179055565b6097546001600160a01b031633146128fd5760405162461bcd60e51b81526004016106169061430d565b6001600160a01b0381166129625760405162461bcd60e51b815260206004820152602660248201527f4f776e61626c653a206e6577206f776e657220697320746865207a65726f206160448201526564647265737360d01b6064820152608401610616565b61108e81613049565b60d154600160a01b900460ff1615156001146129995760405162461bcd60e51b8152600401610616906142b6565b60d1546000906129bc906129b5906001600160a01b0316611091565b8390612a87565b90506000612a1d8286868080601f016020809104026020016040519081016040528093929190818152602001838380828437600092019190915250506040805180820190915260038152622ba3a960e91b602082015233925090508661309b565b60c954909150612a38906001600160a01b0316333086613348565b600081815260d36020526040908190209051339183917f346a2c4fc2a593dc2b1a1be9b51110a8dce6be1d26249555fee555dd4084074291612878918a918a9189918b914291600701906141ff565b600061106382846144c5565b6040516001600160a01b038316602482015260448101829052612af690849063a9059cbb60e01b906064015b60408051601f198184030181529190526020810180516001600160e01b03166001600160e01b0319909316929092179091526133fb565b505050565b60d0546000906060906001600160a01b0386811691161480612b2a575060d0546001600160a01b038581169116145b15612bd85760408051600280825260608201835290916020830190803683370190505090508481600081518110612b7157634e487b7160e01b600052603260045260246000fd5b60200260200101906001600160a01b031690816001600160a01b0316815250508381600181518110612bb357634e487b7160e01b600052603260045260246000fd5b60200260200101906001600160a01b031690816001600160a01b031681525050612cbd565b6040805160038082526080820190925290602082016060803683370190505090508481600081518110612c1b57634e487b7160e01b600052603260045260246000fd5b6001600160a01b03928316602091820292909201015260d054825191169082906001908110612c5a57634e487b7160e01b600052603260045260246000fd5b60200260200101906001600160a01b031690816001600160a01b0316815250508381600281518110612c9c57634e487b7160e01b600052603260045260246000fd5b60200260200101906001600160a01b031690816001600160a01b0316815250505b60cf5460405163d06ca61f60e01b81526000916001600160a01b03169063d06ca61f90612cf09087908690600401614342565b60006040518083038186803b158015612d0857600080fd5b505afa158015612d1c573d6000803e3d6000fd5b505050506040513d6000823e601f3d908101601f19168201604052612d449190810190613b98565b90508060018351612d5591906144c5565b8151811061164b57634e487b7160e01b600052603260045260246000fd5b801580612dfc5750604051636eb1769f60e11b81523060048201526001600160a01b03838116602483015284169063dd62ed3e9060440160206040518083038186803b158015612dc257600080fd5b505afa158015612dd6573d6000803e3d6000fd5b505050506040513d601f19601f82011682018060405250810190612dfa9190613e02565b155b612e675760405162461bcd60e51b815260206004820152603660248201527f5361666542455032303a20617070726f76652066726f6d206e6f6e2d7a65726f60448201527520746f206e6f6e2d7a65726f20616c6c6f77616e636560501b6064820152608401610616565b6040516001600160a01b038316602482015260448101829052612af690849063095ea7b360e01b90606401612abf565b6097546001600160a01b0316331461108e5760405162461bcd60e51b81526004016106169061430d565b6000612ef47f360894a13ba1a3210667c828492db98dca3e2076cc3735a920a3ca505d382bbc546001600160a01b031690565b9050612eff846134cd565b600083511180612f0c5750815b15612f1d57612f1b8484613572565b505b7f4910fdfa16fed3260ed0e7147f7cc6da11a60208b5b9406d12a635614ffd9143805460ff1661304257805460ff191660011781556040516001600160a01b0383166024820152612f9c90869060440160408051601f198184030181529190526020810180516001600160e01b0316631b2ce7f360e11b179052613572565b50805460ff191681557f360894a13ba1a3210667c828492db98dca3e2076cc3735a920a3ca505d382bbc546001600160a01b038381169116146130395760405162461bcd60e51b815260206004820152602f60248201527f45524331393637557067726164653a207570677261646520627265616b73206660448201526e75727468657220757067726164657360881b6064820152608401610616565b6130428561365d565b5050505050565b609780546001600160a01b038381166001600160a01b0319831681179093556040519116919082907f8be0079c531659141344cd1fd0a4f28419497f9722a3daafe3b4186f6b6457e090600090a35050565b600068056bc75e2d6310000086101580156130c0575069021e19e0c9bab24000008611155b61310c5760405162461bcd60e51b815260206004820152601e60248201527f286d696e2f6d6178292062657420283130302f313030303029204257475200006044820152606401610616565b600685511161314e5760405162461bcd60e51b815260206004820152600e60248201526d696e76616c6964206f70636f646560901b6044820152606401610616565b60408051610100810182526001600160a01b03868116825260208083018981528385018b9052606084018890526080840187905284518083018652600080825260a08601919091528551808401875281815260c086015285518087018752600781526670656e64696e6760c81b8185015260e086015260ca54815260d3835294909420835181546001600160a01b031916931692909217825592518051929391926131ff92600185019201906138df565b5060408201516002820155606082015180516132259160038401916020909101906138df565b506080820151600482015560a0820151805161324b9160058401916020909101906138df565b5060c082015180516132679160068401916020909101906138df565b5060e082015180516132839160078401916020909101906138df565b5050604051641d1bdd185b60da1b815287915060cc90600501908152602001604051809103902060008282546132b991906144ad565b925050819055506132f46129b560cb856040516132d69190613ff4565b908152604051908190036020019020546001600160a01b0316611091565b60cc846040516133049190613ff4565b9081526020016040518091039020600082825461332191906144ad565b909155505060ca805490819060006133388361453d565b9091555090979650505050505050565b6040516001600160a01b03808516602483015283166044820152606481018290526125cc9085906323b872dd60e01b90608401612abf565b600054610100900460ff1680613399575060005460ff16155b6133b55760405162461bcd60e51b815260040161061690614268565b600054610100900460ff161580156133d7576000805461ffff19166101011790555b6133df61369d565b6133e7613707565b801561108e576000805461ff001916905550565b6000613450826040518060400160405280602081526020017f5361666542455032303a206c6f772d6c6576656c2063616c6c206661696c6564815250856001600160a01b03166137679092919063ffffffff16565b805190915015612af6578080602001905181019061346e9190613c40565b612af65760405162461bcd60e51b815260206004820152602a60248201527f5361666542455032303a204245503230206f7065726174696f6e20646964206e6044820152691bdd081cdd58d8d9595960b21b6064820152608401610616565b803b6135315760405162461bcd60e51b815260206004820152602d60248201527f455243313936373a206e657720696d706c656d656e746174696f6e206973206e60448201526c1bdd08184818dbdb9d1c9858dd609a1b6064820152608401610616565b7f360894a13ba1a3210667c828492db98dca3e2076cc3735a920a3ca505d382bbc80546001600160a01b0319166001600160a01b0392909216919091179055565b6060823b6135d15760405162461bcd60e51b815260206004820152602660248201527f416464726573733a2064656c65676174652063616c6c20746f206e6f6e2d636f6044820152651b9d1c9858dd60d21b6064820152608401610616565b600080846001600160a01b0316846040516135ec9190613ff4565b600060405180830381855af49150503d8060008114613627576040519150601f19603f3d011682016040523d82523d6000602084013e61362c565b606091505b509150915061365482826040518060600160405280602781526020016145856027913961377e565b95945050505050565b613666816134cd565b6040516001600160a01b038216907fbc7cd75a20ee27fd9adebab32041f755214dbc6bffa90cc0225b39da2e5c2d3b90600090a250565b600054610100900460ff16806136b6575060005460ff16155b6136d25760405162461bcd60e51b815260040161061690614268565b600054610100900460ff161580156133e7576000805461ffff1916610101179055801561108e576000805461ff001916905550565b600054610100900460ff1680613720575060005460ff16155b61373c5760405162461bcd60e51b815260040161061690614268565b600054610100900460ff1615801561375e576000805461ffff19166101011790555b6133e733613049565b606061377684846000856137b7565b949350505050565b6060831561378d575081611063565b82511561379d5782518084602001fd5b8160405162461bcd60e51b81526004016106169190614255565b6060824710156138185760405162461bcd60e51b815260206004820152602660248201527f416464726573733a20696e73756666696369656e742062616c616e636520666f6044820152651c8818d85b1b60d21b6064820152608401610616565b843b6138665760405162461bcd60e51b815260206004820152601d60248201527f416464726573733a2063616c6c20746f206e6f6e2d636f6e74726163740000006044820152606401610616565b600080866001600160a01b031685876040516138829190613ff4565b60006040518083038185875af1925050503d80600081146138bf576040519150601f19603f3d011682016040523d82523d6000602084013e6138c4565b606091505b50915091506138d482828661377e565b979650505050505050565b8280546138eb90614508565b90600052602060002090601f01602090048101928261390d5760008555613953565b82601f1061392657805160ff1916838001178555613953565b82800160010185558215613953579182015b82811115613953578251825591602001919060010190613938565b5061395f9291506139d7565b5090565b82805461396f90614508565b90600052602060002090601f0160209004810192826139915760008555613953565b82601f106139aa5782800160ff19823516178555613953565b82800160010185558215613953579182015b828111156139535782358255916020019190600101906139bc565b5b8082111561395f57600081556001016139d8565b600067ffffffffffffffff831115613a0657613a0661456e565b613a19601f8401601f191660200161447c565b9050828152838383011115613a2d57600080fd5b828260208301376000602084830101529392505050565b80356001600160a01b0381168114610d4f57600080fd5b60008083601f840112613a6c578182fd5b50813567ffffffffffffffff811115613a83578182fd5b602083019150836020828501011115613a9b57600080fd5b9250929050565b600060208284031215613ab3578081fd5b61106382613a44565b600080600060608486031215613ad0578182fd5b613ad984613a44565b9250613ae760208501613a44565b9150613af560408501613a44565b90509250925092565b600080600060608486031215613b12578283fd5b613b1b84613a44565b9250613b2960208501613a44565b9150604084013590509250925092565b60008060408385031215613b4b578182fd5b613b5483613a44565b9150602083013567ffffffffffffffff811115613b6f578182fd5b8301601f81018513613b7f578182fd5b613b8e858235602084016139ec565b9150509250929050565b60006020808385031215613baa578182fd5b825167ffffffffffffffff80821115613bc1578384fd5b818501915085601f830112613bd4578384fd5b815181811115613be657613be661456e565b8060051b9150613bf784830161447c565b8181528481019084860184860187018a1015613c11578788fd5b8795505b83861015613c33578051835260019590950194918601918601613c15565b5098975050505050505050565b600060208284031215613c51578081fd5b81518015158114611063578182fd5b60008060208385031215613c72578182fd5b823567ffffffffffffffff811115613c88578283fd5b613c9485828601613a5b565b90969095509350505050565b600080600060408486031215613cb4578283fd5b833567ffffffffffffffff811115613cca578384fd5b613cd686828701613a5b565b9094509250613af5905060208501613a44565b600080600080600060608688031215613d00578081fd5b853567ffffffffffffffff80821115613d17578283fd5b613d2389838a01613a5b565b90975095506020880135915080821115613d3b578283fd5b50613d4888828901613a5b565b96999598509660400135949350505050565b600080600060408486031215613d6e578283fd5b833567ffffffffffffffff811115613d84578384fd5b613d9086828701613a5b565b909790965060209590950135949350505050565b600060208284031215613db5578081fd5b813567ffffffffffffffff811115613dcb578182fd5b8201601f81018413613ddb578182fd5b613776848235602084016139ec565b600060208284031215613dfb578081fd5b5035919050565b600060208284031215613e13578081fd5b5051919050565b600080600060408486031215613e2e578081fd5b83359250602084013567ffffffffffffffff811115613e4b578182fd5b613e5786828701613a5b565b9497909650939450505050565b60008060008060008060808789031215613e7c578384fd5b8635955060208701359450604087013567ffffffffffffffff80821115613ea1578586fd5b613ead8a838b01613a5b565b90965094506060890135915080821115613ec5578283fd5b50613ed289828a01613a5b565b979a9699509497509295939492505050565b6000815180845260208085019450808401835b83811015613f1c5781516001600160a01b031687529582019590820190600101613ef7565b509495945050505050565b60008284528282602086013780602084860101526020601f19601f85011685010190509392505050565b60008151808452613f698160208601602086016144dc565b601f01601f19169290920160200192915050565b60008154613f8a81614508565b808552602060018381168015613fa75760018114613fbb57613fe9565b60ff19851688840152604088019550613fe9565b866000528260002060005b85811015613fe15781548a8201860152908301908401613fc6565b890184019650505b505050505092915050565b600082516140068184602087016144dc565b9190910192915050565b6000828483379101908152919050565b600080835461402e81614508565b60018281168015614046576001811461405757614083565b60ff19841687528287019450614083565b8786526020808720875b8581101561407a5781548a820152908401908201614061565b50505082870194505b50929695505050505050565b6001600160a01b0389168152610100602082018190526000906140b48382018b613f51565b905088604084015282810360608401526140ce8189613f51565b905086608084015282810360a08401526140e88187613f51565b905082810360c08401526140fc8186613f51565b905082810360e08401526141108185613f51565b9b9a5050505050505050505050565b600060408252614133604083018587613f27565b82810360208401526141458185613f7d565b9695505050505050565b600060c0825261416360c083018a8c613f27565b886020840152828103604084015261417c81888a613f27565b905085606084015284608084015282810360a08401526141108185613f7d565b600060c082526141b060c08301888a613f27565b866020840152828103806040850152600382526221272160e91b60208301528660608501528560808501526040810160a0850152506141f26040820185613f7d565b9998505050505050505050565b600060c0825261421360c08301888a613f27565b86602084015282810380604085015260038252622ba3a960e91b60208301528660608501528560808501526040810160a0850152506141f26040820185613f7d565b6000602082526110636020830184613f51565b6020808252602e908201527f496e697469616c697a61626c653a20636f6e747261637420697320616c72656160408201526d191e481a5b9a5d1a585b1a5e995960921b606082015260800190565b60208082526013908201527210995d1d1a5b99c81a5cc8191a5cd8589b1959606a1b604082015260600190565b60208082526010908201526f0d2dcecc2d8d2c840c4cae892dcc8caf60831b604082015260600190565b6020808252818101527f4f776e61626c653a2063616c6c6572206973206e6f7420746865206f776e6572604082015260600190565b6000838252604060208301526137766040830184613ee4565b6000858252608060208301526143746080830186613ee4565b6001600160a01b03949094166040830152506060015292915050565b600088825260e060208301526143a960e0830189613f51565b87604084015286606084015282810360808401526143c78187613f51565b905082810360a08401526143db8186613f51565b905082810360c08401526143ef8185613f51565b9a9950505050505050505050565b600086825260a0602083015261441660a0830187613f51565b85604084015284606084015282810360808401526144348185613f7d565b98975050505050505050565b600086825285602083015260a0604083015261445f60a0830186613ee4565b6001600160a01b0394909416606083015250608001529392505050565b604051601f8201601f1916810167ffffffffffffffff811182821017156144a5576144a561456e565b604052919050565b600082198211156144c0576144c0614558565b500190565b6000828210156144d7576144d7614558565b500390565b60005b838110156144f75781810151838201526020016144df565b838111156125cc5750506000910152565b600181811c9082168061451c57607f821691505b60208210811415610e6857634e487b7160e01b600052602260045260246000fd5b600060001982141561455157614551614558565b5060010190565b634e487b7160e01b600052601160045260246000fd5b634e487b7160e01b600052604160045260246000fdfe416464726573733a206c6f772d6c6576656c2064656c65676174652063616c6c206661696c6564a26469706673582212200ff41d91d2d98acecc7983bf6d0d059e0ca06384b908d4ec9d7e8a53b8b62c9b64736f6c63430008030033",
  "linkReferences": {},
  "deployedLinkReferences": {}
}