{
  "_format": "hh-sol-artifact-1",
  "contractName": "BettingV4",
  "sourceName": "contracts/BettingV4.sol",
  "abi": [
    {
      "anonymous": false,
      "inputs": [
        {
          "indexed": false,
          "internalType": "address",
          "name": "previousAdmin",
          "type": "address"
        },
        {
          "indexed": false,
          "internalType": "address",
          "name": "newAdmin",
          "type": "address"
        }
      ],
      "name": "AdminChanged",
      "type": "event"
    },
    {
      "anonymous": false,
      "inputs": [
        {
          "indexed": true,
          "internalType": "address",
          "name": "beacon",
          "type": "address"
        }
      ],
      "name": "BeaconUpgraded",
      "type": "event"
    },
    {
      "anonymous": false,
      "inputs": [
        {
          "indexed": true,
          "internalType": "uint256",
          "name": "betIndex",
          "type": "uint256"
        },
        {
          "indexed": true,
          "internalType": "address",
          "name": "user",
          "type": "address"
        },
        {
          "indexed": false,
          "internalType": "string",
          "name": "opcode",
          "type": "string"
        },
        {
          "indexed": false,
          "internalType": "uint256",
          "name": "wgrAmount",
          "type": "uint256"
        },
        {
          "indexed": false,
          "internalType": "uint256",
          "name": "fees",
          "type": "uint256"
        },
        {
          "indexed": false,
          "internalType": "string",
          "name": "coin",
          "type": "string"
        },
        {
          "indexed": false,
          "internalType": "uint256",
          "name": "coinAmount",
          "type": "uint256"
        },
        {
          "indexed": false,
          "internalType": "uint256",
          "name": "timestamp",
          "type": "uint256"
        },
        {
          "indexed": false,
          "internalType": "string",
          "name": "finalStatus",
          "type": "string"
        }
      ],
      "name": "Bet",
      "type": "event"
    },
    {
      "anonymous": false,
      "inputs": [
        {
          "indexed": true,
          "internalType": "address",
          "name": "previousOwner",
          "type": "address"
        },
        {
          "indexed": true,
          "internalType": "address",
          "name": "newOwner",
          "type": "address"
        }
      ],
      "name": "OwnershipTransferred",
      "type": "event"
    },
    {
      "anonymous": false,
      "inputs": [
        {
          "indexed": true,
          "internalType": "uint256",
          "name": "betIndex",
          "type": "uint256"
        },
        {
          "indexed": false,
          "internalType": "uint256",
          "name": "wgrAmount",
          "type": "uint256"
        },
        {
          "indexed": false,
          "internalType": "uint256",
          "name": "fees",
          "type": "uint256"
        },
        {
          "indexed": false,
          "internalType": "string",
          "name": "coin",
          "type": "string"
        },
        {
          "indexed": false,
          "internalType": "uint256",
          "name": "coinAmount",
          "type": "uint256"
        },
        {
          "indexed": false,
          "internalType": "uint256",
          "name": "timestamp",
          "type": "uint256"
        },
        {
          "indexed": false,
          "internalType": "string",
          "name": "wgrResultType",
          "type": "string"
        },
        {
          "indexed": false,
          "internalType": "string",
          "name": "wgrPayoutTx",
          "type": "string"
        },
        {
          "indexed": false,
          "internalType": "string",
          "name": "finalStatus",
          "type": "string"
        }
      ],
      "name": "Payout",
      "type": "event"
    },
    {
      "anonymous": false,
      "inputs": [
        {
          "indexed": true,
          "internalType": "uint256",
          "name": "betIndex",
          "type": "uint256"
        },
        {
          "indexed": false,
          "internalType": "uint256",
          "name": "wgrAmount",
          "type": "uint256"
        },
        {
          "indexed": false,
          "internalType": "string",
          "name": "coin",
          "type": "string"
        },
        {
          "indexed": false,
          "internalType": "uint256",
          "name": "coinAmount",
          "type": "uint256"
        },
        {
          "indexed": false,
          "internalType": "uint256",
          "name": "timestamp",
          "type": "uint256"
        },
        {
          "indexed": false,
          "internalType": "string",
          "name": "finalStatus",
          "type": "string"
        }
      ],
      "name": "Refund",
      "type": "event"
    },
    {
      "anonymous": false,
      "inputs": [
        {
          "indexed": true,
          "internalType": "address",
          "name": "implementation",
          "type": "address"
        }
      ],
      "name": "Upgraded",
      "type": "event"
    },
    {
      "anonymous": false,
      "inputs": [
        {
          "indexed": true,
          "internalType": "uint256",
          "name": "betIndex",
          "type": "uint256"
        },
        {
          "indexed": false,
          "internalType": "string",
          "name": "wgrBetTx",
          "type": "string"
        },
        {
          "indexed": false,
          "internalType": "string",
          "name": "finalStatus",
          "type": "string"
        }
      ],
      "name": "WgrBetTxUpdated",
      "type": "event"
    },
    {
      "inputs": [
        {
          "internalType": "uint256",
          "name": "",
          "type": "uint256"
        }
      ],
      "name": "Bets",
      "outputs": [
        {
          "internalType": "address",
          "name": "user",
          "type": "address"
        },
        {
          "internalType": "string",
          "name": "opcode",
          "type": "string"
        },
        {
          "internalType": "uint256",
          "name": "wgrAmount",
          "type": "uint256"
        },
        {
          "internalType": "uint256",
          "name": "fees",
          "type": "uint256"
        },
        {
          "internalType": "string",
          "name": "coin",
          "type": "string"
        },
        {
          "internalType": "uint256",
          "name": "coinAmount",
          "type": "uint256"
        },
        {
          "internalType": "string",
          "name": "wgrBetTx",
          "type": "string"
        },
        {
          "internalType": "string",
          "name": "payoutTxId",
          "type": "string"
        },
        {
          "internalType": "string",
          "name": "finalStatus",
          "type": "string"
        }
      ],
      "stateMutability": "view",
      "type": "function"
    },
    {
      "inputs": [
        {
          "internalType": "string",
          "name": "",
          "type": "string"
        }
      ],
      "name": "Coins",
      "outputs": [
        {
          "internalType": "address",
          "name": "",
          "type": "address"
        }
      ],
      "stateMutability": "view",
      "type": "function"
    },
    {
      "inputs": [
        {
          "internalType": "string",
          "name": "_symbol",
          "type": "string"
        },
        {
          "internalType": "address",
          "name": "_coinAddress",
          "type": "address"
        }
      ],
      "name": "addCoin",
      "outputs": [],
      "stateMutability": "nonpayable",
      "type": "function"
    },
    {
      "inputs": [],
      "name": "betIndex",
      "outputs": [
        {
          "internalType": "uint256",
          "name": "",
          "type": "uint256"
        }
      ],
      "stateMutability": "view",
      "type": "function"
    },
    {
      "inputs": [
        {
          "internalType": "string",
          "name": "_opcode",
          "type": "string"
        }
      ],
      "name": "betWithNativeCoin",
      "outputs": [],
      "stateMutability": "payable",
      "type": "function"
    },
    {
      "inputs": [
        {
          "internalType": "string",
          "name": "_opcode",
          "type": "string"
        },
        {
          "internalType": "string",
          "name": "_tokenFrom",
          "type": "string"
        },
        {
          "internalType": "uint256",
          "name": "_amount",
          "type": "uint256"
        }
      ],
      "name": "betWithToken",
      "outputs": [],
      "stateMutability": "nonpayable",
      "type": "function"
    },
    {
      "inputs": [
        {
          "internalType": "string",
          "name": "_opcode",
          "type": "string"
        },
        {
          "internalType": "uint256",
          "name": "_amount",
          "type": "uint256"
        }
      ],
      "name": "betWithWGR",
      "outputs": [],
      "stateMutability": "nonpayable",
      "type": "function"
    },
    {
      "inputs": [
        {
          "internalType": "address",
          "name": "_coin",
          "type": "address"
        }
      ],
      "name": "convertFeeToCoin",
      "outputs": [
        {
          "internalType": "uint256",
          "name": "",
          "type": "uint256"
        }
      ],
      "stateMutability": "view",
      "type": "function"
    },
    {
      "inputs": [],
      "name": "fee",
      "outputs": [
        {
          "internalType": "uint256",
          "name": "",
          "type": "uint256"
        }
      ],
      "stateMutability": "view",
      "type": "function"
    },
    {
      "inputs": [
        {
          "internalType": "address",
          "name": "_tokenOut",
          "type": "address"
        },
        {
          "internalType": "address",
          "name": "_tokenIn",
          "type": "address"
        },
        {
          "internalType": "uint256",
          "name": "_amountOut",
          "type": "uint256"
        }
      ],
      "name": "getAmountInMin",
      "outputs": [
        {
          "internalType": "uint256",
          "name": "",
          "type": "uint256"
        }
      ],
      "stateMutability": "view",
      "type": "function"
    },
    {
      "inputs": [
        {
          "internalType": "address",
          "name": "_token",
          "type": "address"
        },
        {
          "internalType": "address",
          "name": "_wcro",
          "type": "address"
        },
        {
          "internalType": "address",
          "name": "_exchangeRouter",
          "type": "address"
        }
      ],
      "name": "initialize",
      "outputs": [],
      "stateMutability": "nonpayable",
      "type": "function"
    },
    {
      "inputs": [],
      "name": "isBettingEnabled",
      "outputs": [
        {
          "internalType": "bool",
          "name": "",
          "type": "bool"
        }
      ],
      "stateMutability": "view",
      "type": "function"
    },
    {
      "inputs": [],
      "name": "onOff",
      "outputs": [],
      "stateMutability": "nonpayable",
      "type": "function"
    },
    {
      "inputs": [],
      "name": "owner",
      "outputs": [
        {
          "internalType": "address",
          "name": "",
          "type": "address"
        }
      ],
      "stateMutability": "view",
      "type": "function"
    },
    {
      "inputs": [
        {
          "internalType": "uint256",
          "name": "_betIndex",
          "type": "uint256"
        },
        {
          "internalType": "uint256",
          "name": "_payout",
          "type": "uint256"
        },
        {
          "internalType": "string",
          "name": "_payoutTx",
          "type": "string"
        },
        {
          "internalType": "string",
          "name": "_resultType",
          "type": "string"
        }
      ],
      "name": "processPayout",
      "outputs": [
        {
          "internalType": "bool",
          "name": "",
          "type": "bool"
        }
      ],
      "stateMutability": "nonpayable",
      "type": "function"
    },
    {
      "inputs": [
        {
          "internalType": "uint256",
          "name": "_betIndex",
          "type": "uint256"
        }
      ],
      "name": "refund",
      "outputs": [
        {
          "internalType": "bool",
          "name": "",
          "type": "bool"
        }
      ],
      "stateMutability": "nonpayable",
      "type": "function"
    },
    {
      "inputs": [
        {
          "internalType": "string",
          "name": "_symbol",
          "type": "string"
        }
      ],
      "name": "removeCoin",
      "outputs": [],
      "stateMutability": "nonpayable",
      "type": "function"
    },
    {
      "inputs": [],
      "name": "renounceOwnership",
      "outputs": [],
      "stateMutability": "nonpayable",
      "type": "function"
    },
    {
      "inputs": [
        {
          "internalType": "uint256",
          "name": "_fee",
          "type": "uint256"
        }
      ],
      "name": "setFee",
      "outputs": [],
      "stateMutability": "nonpayable",
      "type": "function"
    },
    {
      "inputs": [
        {
          "internalType": "string",
          "name": "",
          "type": "string"
        }
      ],
      "name": "totalBets",
      "outputs": [
        {
          "internalType": "uint256",
          "name": "",
          "type": "uint256"
        }
      ],
      "stateMutability": "view",
      "type": "function"
    },
    {
      "inputs": [
        {
          "internalType": "string",
          "name": "",
          "type": "string"
        }
      ],
      "name": "totalPayout",
      "outputs": [
        {
          "internalType": "uint256",
          "name": "",
          "type": "uint256"
        }
      ],
      "stateMutability": "view",
      "type": "function"
    },
    {
      "inputs": [
        {
          "internalType": "string",
          "name": "",
          "type": "string"
        }
      ],
      "name": "totalRefunds",
      "outputs": [
        {
          "internalType": "uint256",
          "name": "",
          "type": "uint256"
        }
      ],
      "stateMutability": "view",
      "type": "function"
    },
    {
      "inputs": [
        {
          "internalType": "address",
          "name": "newOwner",
          "type": "address"
        }
      ],
      "name": "transferOwnership",
      "outputs": [],
      "stateMutability": "nonpayable",
      "type": "function"
    },
    {
      "inputs": [
        {
          "internalType": "address",
          "name": "_newRouter",
          "type": "address"
        }
      ],
      "name": "updateExchangeRouter",
      "outputs": [],
      "stateMutability": "nonpayable",
      "type": "function"
    },
    {
      "inputs": [
        {
          "internalType": "uint256",
          "name": "_betIndex",
          "type": "uint256"
        },
        {
          "internalType": "string",
          "name": "_txId",
          "type": "string"
        }
      ],
      "name": "updateWgrBetTx",
      "outputs": [
        {
          "internalType": "bool",
          "name": "",
          "type": "bool"
        }
      ],
      "stateMutability": "nonpayable",
      "type": "function"
    },
    {
      "inputs": [
        {
          "internalType": "address",
          "name": "newImplementation",
          "type": "address"
        }
      ],
      "name": "upgradeTo",
      "outputs": [],
      "stateMutability": "nonpayable",
      "type": "function"
    },
    {
      "inputs": [
        {
          "internalType": "address",
          "name": "newImplementation",
          "type": "address"
        },
        {
          "internalType": "bytes",
          "name": "data",
          "type": "bytes"
        }
      ],
      "name": "upgradeToAndCall",
      "outputs": [],
      "stateMutability": "payable",
      "type": "function"
    },
    {
      "inputs": [],
      "name": "version",
      "outputs": [
        {
          "internalType": "string",
          "name": "",
          "type": "string"
        }
      ],
      "stateMutability": "view",
      "type": "function"
    },
    {
      "inputs": [
        {
          "internalType": "uint256",
          "name": "_amount",
          "type": "uint256"
        }
      ],
      "name": "withdraw",
      "outputs": [],
      "stateMutability": "nonpayable",
      "type": "function"
    }
  ],
  "bytecode": "0x608060405234801561001057600080fd5b50614642806100206000396000f3fe6080604052600436106101c25760003560e01c806371b7270c116100f7578063bfbca4c911610095578063ddca3f4311610064578063ddca3f4314610574578063eec5cc8b1461058a578063f2fde38b146105aa578063f9c86329146105ca576101c2565b8063bfbca4c9146104e0578063c0c53b8b14610521578063c392079f14610541578063db89ef6814610561576101c2565b80639ddc4e67116100d15780639ddc4e6714610452578063aef0e4ac14610467578063aff7dad91461049f578063b8ec0f82146104c0576101c2565b806371b7270c146103e05780637c108ae8146104005780638da5cb5b14610420576101c2565b8063393f1f8d1161016457806354fd4d501161013e57806354fd4d501461035a57806368e191041461038b57806369fe0e2d146103ab578063715018a6146103cb576101c2565b8063393f1f8d146102f25780634f1ef28614610312578063532a5fe814610325576101c2565b80632e1a7d4d116101a05780632e1a7d4d1461027a578063318c803f1461029c5780633482dc12146102b25780633659cfe6146102d2576101c2565b80630aee5381146101c7578063278ecde11461021257806328a5e20f14610242575b600080fd5b3480156101d357600080fd5b506101ff6101e2366004613dda565b805160208183018101805160ce8252928201919093012091525481565b6040519081526020015b60405180910390f35b34801561021e57600080fd5b5061023261022d366004613e20565b6105ea565b6040519015158152602001610209565b34801561024e57600080fd5b506101ff61025d366004613dda565b805160208183018101805160cd8252928201919093012091525481565b34801561028657600080fd5b5061029a610295366004613e20565b610d2a565b005b3480156102a857600080fd5b506101ff60ca5481565b3480156102be57600080fd5b506102326102cd366004613e50565b610e3f565b3480156102de57600080fd5b5061029a6102ed366004613ad8565b61103b565b3480156102fe57600080fd5b506101ff61030d366004613ad8565b611062565b61029a610320366004613b6f565b6110a4565b34801561033157600080fd5b50610345610340366004613e20565b6110b9565b604051610209999897969594939291906140c5565b34801561036657600080fd5b5060408051808201825260028152611d8d60f21b6020820152905161020991906142a6565b34801561039757600080fd5b506101ff6103a6366004613b34565b6113b2565b3480156103b757600080fd5b5061029a6103c6366004613e20565b611631565b3480156103d757600080fd5b5061029a611660565b3480156103ec57600080fd5b5061029a6103fb366004613cd6565b611696565b34801561040c57600080fd5b5061023261041b366004613e9a565b611707565b34801561042c57600080fd5b506097546001600160a01b03165b6040516001600160a01b039091168152602001610209565b34801561045e57600080fd5b5061029a61213d565b34801561047357600080fd5b506101ff610482366004613dda565b805160208183018101805160cc8252928201919093012091525481565b3480156104ab57600080fd5b5060d15461023290600160a01b900460ff1681565b3480156104cc57600080fd5b5061029a6104db366004613d1f565b612188565b3480156104ec57600080fd5b5061043a6104fb366004613dda565b805160208183018101805160cb825292820191909301209152546001600160a01b031681565b34801561052d57600080fd5b5061029a61053c366004613af2565b6124e9565b34801561054d57600080fd5b5061029a61055c366004613c96565b6125c4565b61029a61056f366004613c96565b612621565b34801561058057600080fd5b506101ff60d25481565b34801561059657600080fd5b5061029a6105a5366004613ad8565b612892565b3480156105b657600080fd5b5061029a6105c5366004613ad8565b6128de565b3480156105d657600080fd5b5061029a6105e5366004613d90565b612976565b6097546000906001600160a01b031633146106205760405162461bcd60e51b81526004016106179061435e565b60405180910390fd5b60ca5482106106415760405162461bcd60e51b815260040161061790614334565b6040516670656e64696e6760c81b602082015260270160408051601f198184030181528282528051602091820120600086815260d3835292909220919261068c926008019101614056565b60405160208183030381529060405280519060200120146106e75760405162461bcd60e51b815260206004820152601560248201527418995d08185b1c9958591e481c1c9bd8d95cdcd959605a1b6044820152606401610617565b600082815260d36020526040812080546002820154600490920180546001600160a01b03909216939161071990614563565b80601f016020809104026020016040519081016040528092919081815260200182805461074590614563565b80156107925780601f1061076757610100808354040283529160200191610792565b820191906000526020600020905b81548152906001019060200180831161077557829003601f168201915b50506040805180820182526008808252671c99599d5b99195960c21b602080840191825260008e815260d39091529390932091519697506107db96910194509092509050613915565b508160cd6040516107f790641d1bdd185b60da1b815260050190565b908152602001604051809103902060008282546108149190614508565b9091555050604051622ba3a960e91b60208201526000906023016040516020818303038152906040528051906020012082604051602001610855919061402a565b6040516020818303038152906040528051906020012014156108cb578260cd60405161088a90622ba3a960e91b815260030190565b908152602001604051809103902060008282546108a79190614508565b909155505060c9548391506108c6906001600160a01b03168583612aa2565b610cc7565b6040516243524f60e81b60208201526023016040516020818303038152906040528051906020012082604051602001610904919061402a565b604051602081830303815290604052805190602001201415610ac057604080516002808252606082018352600092602083019080368337505060d15482519293506001600160a01b03169183915060009061096f57634e487b7160e01b600052603260045260246000fd5b6001600160a01b03928316602091820292909201015260d0548251911690829060019081106109ae57634e487b7160e01b600052603260045260246000fd5b6001600160a01b03928316602091820292909201015260d15460d0546109d992918216911686612b0a565b91508160cd846040516109ec919061402a565b90815260200160405180910390206000828254610a099190614508565b909155505060cf5460c954610a2b916001600160a01b03918216911686612d82565b60cf546040516318cbafe560e01b81526001600160a01b03909116906318cbafe590610a63908790869086908b904290600401614424565b600060405180830381600087803b158015610a7d57600080fd5b505af1158015610a91573d6000803e3d6000fd5b505050506040513d6000823e601f3d908101601f19168201604052610ab99190810190613bce565b5050610cc7565b600060cb83604051610ad2919061402a565b908152604080519182900360209081018320546003808552608085019093526001600160a01b0316935060009291908201606080368337505060d15482519293506001600160a01b031691839150600090610b3d57634e487b7160e01b600052603260045260246000fd5b6001600160a01b03928316602091820292909201015260d054825191169082906001908110610b7c57634e487b7160e01b600052603260045260246000fd5b60200260200101906001600160a01b031690816001600160a01b0316815250508181600281518110610bbe57634e487b7160e01b600052603260045260246000fd5b6001600160a01b03928316602091820292909201015260d154610be391168387612b0a565b92508260cd85604051610bf6919061402a565b90815260200160405180910390206000828254610c139190614508565b909155505060cf5460c954610c35916001600160a01b03918216911687612d82565b60cf546040516338ed173960e01b81526001600160a01b03909116906338ed173990610c6d908890879086908c904290600401614424565b600060405180830381600087803b158015610c8757600080fd5b505af1158015610c9b573d6000803e3d6000fd5b505050506040513d6000823e601f3d908101601f19168201604052610cc39190810190613bce565b5050505b857f538175b9af59591bb250a8268e3b72f5f7cf7eb297d43a69fcfaaf79ea8963b08484844260d360008d8152602001908152602001600020600801604051610d149594939291906143e1565b60405180910390a260019450505050505b919050565b6097546001600160a01b03163314610d545760405162461bcd60e51b81526004016106179061435e565b60c9546040516370a0823160e01b81523060048201526000916001600160a01b0316906370a082319060240160206040518083038186803b158015610d9857600080fd5b505afa158015610dac573d6000803e3d6000fd5b505050506040513d601f19601f82011682018060405250810190610dd09190613e38565b905081811015610e135760405162461bcd60e51b815260206004820152600e60248201526d616d6f756e74206578636565647360901b6044820152606401610617565b610e3b610e286097546001600160a01b031690565b60c9546001600160a01b03169084612aa2565b5050565b6097546000906001600160a01b03163314610e6c5760405162461bcd60e51b81526004016106179061435e565b60ca548410610e8d5760405162461bcd60e51b815260040161061790614334565b6040516670656e64696e6760c81b602082015260270160408051601f198184030181528282528051602091820120600088815260d38352929092209192610ed8926008019101614056565b6040516020818303038152906040528051906020012014610f3b5760405162461bcd60e51b815260206004820152601860248201527f776772426574547820616c7265616479207570646174656400000000000000006044820152606401610617565b81610f7f5760405162461bcd60e51b8152602060048201526014602482015273747849642063616e6e6f7420626520656d70747960601b6044820152606401610617565b600084815260d360205260409020610f9b906006018484613999565b5060408051808201825260098152681c1c9bd8d95cdcd95960ba1b6020808301918252600088815260d3909152929092209051610fde9260089092019190613915565b50837feaa98b798f321a8dd9ac259b306d344abad5573ccce303bab7f1d5f6e2c0fe0c848460d360008981526020019081526020016000206008016040516110289392919061415d565b60405180910390a25060015b9392505050565b61104481612ea6565b61105f81604051806020016040528060008152506000612ed0565b50565b60d0546000906001600160a01b0383811691161415611084575060d254610d25565b60d05460d254600091611034916001600160a01b03909116908590612b0a565b6110ad82612ea6565b610e3b82826001612ed0565b60d360205260009081526040902080546001820180546001600160a01b0390921692916110e590614563565b80601f016020809104026020016040519081016040528092919081815260200182805461111190614563565b801561115e5780601f106111335761010080835404028352916020019161115e565b820191906000526020600020905b81548152906001019060200180831161114157829003601f168201915b50505050509080600201549080600301549080600401805461117f90614563565b80601f01602080910402602001604051908101604052809291908181526020018280546111ab90614563565b80156111f85780601f106111cd576101008083540402835291602001916111f8565b820191906000526020600020905b8154815290600101906020018083116111db57829003601f168201915b50505050509080600501549080600601805461121390614563565b80601f016020809104026020016040519081016040528092919081815260200182805461123f90614563565b801561128c5780601f106112615761010080835404028352916020019161128c565b820191906000526020600020905b81548152906001019060200180831161126f57829003601f168201915b5050505050908060070180546112a190614563565b80601f01602080910402602001604051908101604052809291908181526020018280546112cd90614563565b801561131a5780601f106112ef5761010080835404028352916020019161131a565b820191906000526020600020905b8154815290600101906020018083116112fd57829003601f168201915b50505050509080600801805461132f90614563565b80601f016020809104026020016040519081016040528092919081815260200182805461135b90614563565b80156113a85780601f1061137d576101008083540402835291602001916113a8565b820191906000526020600020905b81548152906001019060200180831161138b57829003601f168201915b5050505050905089565b60d0546000906060906001600160a01b03858116911614806113e1575060d0546001600160a01b038681169116145b1561148f576040805160028082526060820183529091602083019080368337019050509050848160008151811061142857634e487b7160e01b600052603260045260246000fd5b60200260200101906001600160a01b031690816001600160a01b031681525050838160018151811061146a57634e487b7160e01b600052603260045260246000fd5b60200260200101906001600160a01b031690816001600160a01b031681525050611574565b60408051600380825260808201909252906020820160608036833701905050905084816000815181106114d257634e487b7160e01b600052603260045260246000fd5b6001600160a01b03928316602091820292909201015260d05482519116908290600190811061151157634e487b7160e01b600052603260045260246000fd5b60200260200101906001600160a01b031690816001600160a01b031681525050838160028151811061155357634e487b7160e01b600052603260045260246000fd5b60200260200101906001600160a01b031690816001600160a01b0316815250505b60cf546040516307c0329d60e21b81526000916001600160a01b031690631f00ca74906115a79087908690600401614393565b60006040518083038186803b1580156115bf57600080fd5b505afa1580156115d3573d6000803e3d6000fd5b505050506040513d6000823e601f3d908101601f191682016040526115fb9190810190613bce565b90508060008151811061161e57634e487b7160e01b600052603260045260246000fd5b6020026020010151925050509392505050565b6097546001600160a01b0316331461165b5760405162461bcd60e51b81526004016106179061435e565b60d255565b6097546001600160a01b0316331461168a5760405162461bcd60e51b81526004016106179061435e565b6116946000613058565b565b6097546001600160a01b031633146116c05760405162461bcd60e51b81526004016106179061435e565b8060cb84846040516116d3929190614046565b90815260405190819003602001902080546001600160a01b03929092166001600160a01b0319909216919091179055505050565b6097546000906001600160a01b031633146117345760405162461bcd60e51b81526004016106179061435e565b60ca5487106117555760405162461bcd60e51b815260040161061790614334565b600087815260d360205260408120600401805461177190614563565b80601f016020809104026020016040519081016040528092919081815260200182805461179d90614563565b80156117ea5780601f106117bf576101008083540402835291602001916117ea565b820191906000526020600020905b8154815290600101906020018083116117cd57829003601f168201915b50505050509050600060d360008a8152602001908152602001600020600801805461181490614563565b80601f016020809104026020016040519081016040528092919081815260200182805461184090614563565b801561188d5780601f106118625761010080835404028352916020019161188d565b820191906000526020600020905b81548152906001019060200180831161187057829003601f168201915b50505050509050600087878080601f0160208091040260200160405190810160405280939291908181526020018383808284376000920182905250604080516020601f8d018190048102820181019092528b8152959650909493508a92508991508190840183828082843760009201919091525050604051681c1c9bd8d95cdcd95960ba1b60208201529293508c9260290191506119289050565b604051602081830303815290604052805190602001208460405160200161194f919061402a565b60405160208183030381529060405280519060200120146119bc5760405162461bcd60e51b815260206004820152602160248201527f626574206e6f742070726f63657373656420796574206f7220726566756e64656044820152601960fa1b6064820152608401610617565b6000835111611a0d5760405162461bcd60e51b815260206004820152601a60248201527f7061796f7574547849642063616e6e6f7420626520656d7074790000000000006044820152606401610617565b6000825111611a5e5760405162461bcd60e51b815260206004820152601a60248201527f726573756c74547970652063616e6e6f7420626520656d7074790000000000006044820152606401610617565b670de0b6b3a76400008111611aae5760405162461bcd60e51b81526020600482015260166024820152751c185e5bdd5d08185b5bdd5b9d081c995c5d5a5c995960521b6044820152606401610617565b60008c815260d3602090815260409091208451611ad392600790920191860190613915565b508060ce604051611aef90641d1bdd185b60da1b815260050190565b90815260200160405180910390206000828254611b0c9190614508565b925050819055506040518060400160405280600981526020016818dbdb5c1b195d195960ba1b81525060d360008e81526020019081526020016000206008019080519060200190611b5e929190613915565b5060008c815260d3602052604090206008018054611b7b90614563565b80601f0160208091040260200160405190810160405280929190818152602001828054611ba790614563565b8015611bf45780601f10611bc957610100808354040283529160200191611bf4565b820191906000526020600020905b815481529060010190602001808311611bd757829003601f168201915b50505060008f815260d3602052604081205460d1549498506001600160a01b0390811694919350839250611c289116611062565b9050611c3484826130aa565b604051622ba3a960e91b60208201529094506023016040516020818303038152906040528051906020012088604051602001611c70919061402a565b604051602081830303815290604052805190602001201415611ce6578360ce604051611ca590622ba3a960e91b815260030190565b90815260200160405180910390206000828254611cc29190614508565b909155505060c954849250611ce1906001600160a01b03168484612aa2565b6120e2565b6040516243524f60e81b60208201526023016040516020818303038152906040528051906020012088604051602001611d1f919061402a565b604051602081830303815290604052805190602001201415611edb57604080516002808252606082018352600092602083019080368337505060d15482519293506001600160a01b031691839150600090611d8a57634e487b7160e01b600052603260045260246000fd5b6001600160a01b03928316602091820292909201015260d054825191169082906001908110611dc957634e487b7160e01b600052603260045260246000fd5b6001600160a01b03928316602091820292909201015260d15460d054611df492918216911687612b0a565b92508260ce8a604051611e07919061402a565b90815260200160405180910390206000828254611e249190614508565b909155505060cf5460c954611e46916001600160a01b03918216911687612d82565b60cf546040516318cbafe560e01b81526001600160a01b03909116906318cbafe590611e7e908890879086908a904290600401614424565b600060405180830381600087803b158015611e9857600080fd5b505af1158015611eac573d6000803e3d6000fd5b505050506040513d6000823e601f3d908101601f19168201604052611ed49190810190613bce565b50506120e2565b600060cb89604051611eed919061402a565b908152604080519182900360209081018320546003808552608085019093526001600160a01b0316935060009291908201606080368337505060d15482519293506001600160a01b031691839150600090611f5857634e487b7160e01b600052603260045260246000fd5b6001600160a01b03928316602091820292909201015260d054825191169082906001908110611f9757634e487b7160e01b600052603260045260246000fd5b60200260200101906001600160a01b031690816001600160a01b0316815250508181600281518110611fd957634e487b7160e01b600052603260045260246000fd5b6001600160a01b03928316602091820292909201015260d154611ffe91168388612b0a565b93508360ce8b604051612011919061402a565b9081526020016040518091039020600082825461202e9190614508565b909155505060cf5460c954612050916001600160a01b03918216911688612d82565b60cf546040516338ed173960e01b81526001600160a01b03909116906338ed173990612088908990889086908b904290600401614424565b600060405180830381600087803b1580156120a257600080fd5b505af11580156120b6573d6000803e3d6000fd5b505050506040513d6000823e601f3d908101601f191682016040526120de9190810190613bce565b5050505b8e7f012363f2894c24a88be4aa5d15be42100752f6a1d691c2bd617afea77ad4c10885838b86428b8d8f604051612120989796959493929190614460565b60405180910390a25060019e9d5050505050505050505050505050565b6097546001600160a01b031633146121675760405162461bcd60e51b81526004016106179061435e565b60d1805460ff60a01b198116600160a01b9182900460ff1615909102179055565b60d154600160a01b900460ff1615156001146121b65760405162461bcd60e51b815260040161061790614307565b600060cb84846040516121ca929190614046565b908152604051908190036020019020546001600160a01b03169050806122275760405162461bcd60e51b815260206004820152601260248201527110dbda5b881b9bdd081cdd5c1c1bdc9d195960721b6044820152606401610617565b60d1546000906122429083906001600160a01b031685612b0a565b60d15490915060009061225d906001600160a01b0316611062565b905061226982826130aa565b915060006122e683838b8b8080601f01602080910402602001604051908101604052809392919081815260200183838082843760009201919091525050604080516020601f8f018190048102820181019092528d815233935091508d908d90819084018382808284376000920191909152508d92506130b6915050565b90506122fd6001600160a01b03851633308861337e565b60cf54612317906001600160a01b03868116911687612d82565b6040805160038082526080820190925260009160208201606080368337019050509050848160008151811061235c57634e487b7160e01b600052603260045260246000fd5b6001600160a01b03928316602091820292909201015260d05482519116908290600190811061239b57634e487b7160e01b600052603260045260246000fd5b6001600160a01b03928316602091820292909201015260d1548251911690829060029081106123da57634e487b7160e01b600052603260045260246000fd5b6001600160a01b03928316602091820292909201015260cf546040516338ed173960e01b81529116906338ed17399061241f9089908890869030904290600401614424565b600060405180830381600087803b15801561243957600080fd5b505af115801561244d573d6000803e3d6000fd5b505050506040513d6000823e601f3d908101601f191682016040526124759190810190613bce565b50336001600160a01b0316827f58f67abc9bd630b4f46f9f8e0f936f85cf12e01bb39ded9241c6b6ebac6102a38c8c88888e8e8e4260d360008e81526020019081526020016000206008016040516124d59998979695949392919061418d565b60405180910390a350505050505050505050565b600054610100900460ff1680612502575060005460ff16155b61251e5760405162461bcd60e51b8152600401610617906142b9565b600054610100900460ff16158015612540576000805461ffff19166101011790555b60c980546001600160a01b038087166001600160a01b03199283168117909355600160ca5560cf805486831690841617905560d080549187169190921617905560d180546001600160a81b031916909117600160a01b1790556603966d0a63180060d2556125ac6133b6565b80156125be576000805461ff00191690555b50505050565b6097546001600160a01b031633146125ee5760405162461bcd60e51b81526004016106179061435e565b60cb8282604051612600929190614046565b90815260405190819003602001902080546001600160a01b03191690555050565b60d154600160a01b900460ff16151560011461264f5760405162461bcd60e51b815260040161061790614307565b60d05460d15460009161266f916001600160a01b03918216911634612b0a565b60d15490915060009061268a906001600160a01b0316611062565b905061269682826130aa565b915060006126f8838387878080601f0160208091040260200160405190810160405280939291908181526020018383808284376000920191909152505060408051808201909152600381526243524f60e81b60208201523392509050346130b6565b6040805160028082526060820183529293506000929091602083019080368337505060d05482519293506001600160a01b03169183915060009061274c57634e487b7160e01b600052603260045260246000fd5b6001600160a01b03928316602091820292909201015260d15482519116908290600190811061278b57634e487b7160e01b600052603260045260246000fd5b6001600160a01b03928316602091820292909201015260cf54604051637ff36ab560e01b8152911690637ff36ab59034906127d09088908690309042906004016143ac565b6000604051808303818588803b1580156127e957600080fd5b505af11580156127fd573d6000803e3d6000fd5b50505050506040513d6000823e601f3d908101601f191682016040526128269190810190613bce565b50336001600160a01b0316827f58f67abc9bd630b4f46f9f8e0f936f85cf12e01bb39ded9241c6b6ebac6102a388888888344260d360008c8152602001908152602001600020600801604051612882979695949392919061424a565b60405180910390a3505050505050565b6097546001600160a01b031633146128bc5760405162461bcd60e51b81526004016106179061435e565b60cf80546001600160a01b0319166001600160a01b0392909216919091179055565b6097546001600160a01b031633146129085760405162461bcd60e51b81526004016106179061435e565b6001600160a01b03811661296d5760405162461bcd60e51b815260206004820152602660248201527f4f776e61626c653a206e6577206f776e657220697320746865207a65726f206160448201526564647265737360d01b6064820152608401610617565b61105f81613058565b60d154600160a01b900460ff1615156001146129a45760405162461bcd60e51b815260040161061790614307565b60d1546000906129bc906001600160a01b0316611062565b905060006129ca83836130aa565b90506000612a2c828488888080601f016020809104026020016040519081016040528093929190818152602001838380828437600092019190915250506040805180820190915260038152622ba3a960e91b60208201523392509050876130b6565b60c954909150612a47906001600160a01b031633308761337e565b336001600160a01b0316817f58f67abc9bd630b4f46f9f8e0f936f85cf12e01bb39ded9241c6b6ebac6102a3888886888a4260d360008b815260200190815260200160002060080160405161288297969594939291906141e0565b6040516001600160a01b038316602482015260448101829052612b0590849063a9059cbb60e01b906064015b60408051601f198184030181529190526020810180516001600160e01b03166001600160e01b031990931692909217909152613431565b505050565b60d0546000906060906001600160a01b0386811691161480612b39575060d0546001600160a01b038581169116145b15612be75760408051600280825260608201835290916020830190803683370190505090508481600081518110612b8057634e487b7160e01b600052603260045260246000fd5b60200260200101906001600160a01b031690816001600160a01b0316815250508381600181518110612bc257634e487b7160e01b600052603260045260246000fd5b60200260200101906001600160a01b031690816001600160a01b031681525050612ccc565b6040805160038082526080820190925290602082016060803683370190505090508481600081518110612c2a57634e487b7160e01b600052603260045260246000fd5b6001600160a01b03928316602091820292909201015260d054825191169082906001908110612c6957634e487b7160e01b600052603260045260246000fd5b60200260200101906001600160a01b031690816001600160a01b0316815250508381600281518110612cab57634e487b7160e01b600052603260045260246000fd5b60200260200101906001600160a01b031690816001600160a01b0316815250505b60cf5460405163d06ca61f60e01b81526000916001600160a01b03169063d06ca61f90612cff9087908690600401614393565b60006040518083038186803b158015612d1757600080fd5b505afa158015612d2b573d6000803e3d6000fd5b505050506040513d6000823e601f3d908101601f19168201604052612d539190810190613bce565b90508060018351612d649190614520565b8151811061161e57634e487b7160e01b600052603260045260246000fd5b801580612e0b5750604051636eb1769f60e11b81523060048201526001600160a01b03838116602483015284169063dd62ed3e9060440160206040518083038186803b158015612dd157600080fd5b505afa158015612de5573d6000803e3d6000fd5b505050506040513d601f19601f82011682018060405250810190612e099190613e38565b155b612e765760405162461bcd60e51b815260206004820152603660248201527f5361666543524332303a20617070726f76652066726f6d206e6f6e2d7a65726f60448201527520746f206e6f6e2d7a65726f20616c6c6f77616e636560501b6064820152608401610617565b6040516001600160a01b038316602482015260448101829052612b0590849063095ea7b360e01b90606401612ace565b6097546001600160a01b0316331461105f5760405162461bcd60e51b81526004016106179061435e565b6000612f037f360894a13ba1a3210667c828492db98dca3e2076cc3735a920a3ca505d382bbc546001600160a01b031690565b9050612f0e84613503565b600083511180612f1b5750815b15612f2c57612f2a84846135a8565b505b7f4910fdfa16fed3260ed0e7147f7cc6da11a60208b5b9406d12a635614ffd9143805460ff1661305157805460ff191660011781556040516001600160a01b0383166024820152612fab90869060440160408051601f198184030181529190526020810180516001600160e01b0316631b2ce7f360e11b1790526135a8565b50805460ff191681557f360894a13ba1a3210667c828492db98dca3e2076cc3735a920a3ca505d382bbc546001600160a01b038381169116146130485760405162461bcd60e51b815260206004820152602f60248201527f45524331393637557067726164653a207570677261646520627265616b73206660448201526e75727468657220757067726164657360881b6064820152608401610617565b61305185613693565b5050505050565b609780546001600160a01b038381166001600160a01b0319831681179093556040519116919082907f8be0079c531659141344cd1fd0a4f28419497f9722a3daafe3b4186f6b6457e090600090a35050565b60006110348284614520565b600068056bc75e2d6310000087101580156130db575069021e19e0c9bab24000008711155b6131275760405162461bcd60e51b815260206004820152601e60248201527f286d696e2f6d6178292062657420283130302f313030303029204357475200006044820152606401610617565b60068551116131695760405162461bcd60e51b815260206004820152600e60248201526d696e76616c6964206f70636f646560901b6044820152606401610617565b60408051610120810182526001600160a01b03868116825260208083018981528385018c9052606084018b90526080840188905260a0840187905284518083018652600080825260c08601919091528551808401875281815260e086015285518087018752600781526670656e64696e6760c81b8185015261010086015260ca54815260d3835294909420835181546001600160a01b031916931692909217825592518051929391926132229260018501920190613915565b50604082015160028201556060820151600382015560808201518051613252916004840191602090910190613915565b5060a0820151600582015560c08201518051613278916006840191602090910190613915565b5060e08201518051613294916007840191602090910190613915565b5061010082015180516132b1916008840191602090910190613915565b5050604051641d1bdd185b60da1b815288915060cc90600501908152602001604051809103902060008282546132e79190614508565b9250508190555061332961332260cb85604051613304919061402a565b908152604051908190036020019020546001600160a01b0316611062565b83906130aa565b60cc84604051613339919061402a565b908152602001604051809103902060008282546133569190614508565b909155505060ca8054908190600061336d8361459e565b909155509098975050505050505050565b6040516001600160a01b03808516602483015283166044820152606481018290526125be9085906323b872dd60e01b90608401612ace565b600054610100900460ff16806133cf575060005460ff16155b6133eb5760405162461bcd60e51b8152600401610617906142b9565b600054610100900460ff1615801561340d576000805461ffff19166101011790555b6134156136d3565b61341d61373d565b801561105f576000805461ff001916905550565b6000613486826040518060400160405280602081526020017f5361666543524332303a206c6f772d6c6576656c2063616c6c206661696c6564815250856001600160a01b031661379d9092919063ffffffff16565b805190915015612b0557808060200190518101906134a49190613c76565b612b055760405162461bcd60e51b815260206004820152602a60248201527f5361666543524332303a204352433230206f7065726174696f6e20646964206e6044820152691bdd081cdd58d8d9595960b21b6064820152608401610617565b803b6135675760405162461bcd60e51b815260206004820152602d60248201527f455243313936373a206e657720696d706c656d656e746174696f6e206973206e60448201526c1bdd08184818dbdb9d1c9858dd609a1b6064820152608401610617565b7f360894a13ba1a3210667c828492db98dca3e2076cc3735a920a3ca505d382bbc80546001600160a01b0319166001600160a01b0392909216919091179055565b6060823b6136075760405162461bcd60e51b815260206004820152602660248201527f416464726573733a2064656c65676174652063616c6c20746f206e6f6e2d636f6044820152651b9d1c9858dd60d21b6064820152608401610617565b600080846001600160a01b031684604051613622919061402a565b600060405180830381855af49150503d806000811461365d576040519150601f19603f3d011682016040523d82523d6000602084013e613662565b606091505b509150915061368a82826040518060600160405280602781526020016145e6602791396137b4565b95945050505050565b61369c81613503565b6040516001600160a01b038216907fbc7cd75a20ee27fd9adebab32041f755214dbc6bffa90cc0225b39da2e5c2d3b90600090a250565b600054610100900460ff16806136ec575060005460ff16155b6137085760405162461bcd60e51b8152600401610617906142b9565b600054610100900460ff1615801561341d576000805461ffff1916610101179055801561105f576000805461ff001916905550565b600054610100900460ff1680613756575060005460ff16155b6137725760405162461bcd60e51b8152600401610617906142b9565b600054610100900460ff16158015613794576000805461ffff19166101011790555b61341d33613058565b60606137ac84846000856137ed565b949350505050565b606083156137c3575081611034565b8251156137d35782518084602001fd5b8160405162461bcd60e51b815260040161061791906142a6565b60608247101561384e5760405162461bcd60e51b815260206004820152602660248201527f416464726573733a20696e73756666696369656e742062616c616e636520666f6044820152651c8818d85b1b60d21b6064820152608401610617565b843b61389c5760405162461bcd60e51b815260206004820152601d60248201527f416464726573733a2063616c6c20746f206e6f6e2d636f6e74726163740000006044820152606401610617565b600080866001600160a01b031685876040516138b8919061402a565b60006040518083038185875af1925050503d80600081146138f5576040519150601f19603f3d011682016040523d82523d6000602084013e6138fa565b606091505b509150915061390a8282866137b4565b979650505050505050565b82805461392190614563565b90600052602060002090601f0160209004810192826139435760008555613989565b82601f1061395c57805160ff1916838001178555613989565b82800160010185558215613989579182015b8281111561398957825182559160200191906001019061396e565b50613995929150613a0d565b5090565b8280546139a590614563565b90600052602060002090601f0160209004810192826139c75760008555613989565b82601f106139e05782800160ff19823516178555613989565b82800160010185558215613989579182015b828111156139895782358255916020019190600101906139f2565b5b808211156139955760008155600101613a0e565b600067ffffffffffffffff831115613a3c57613a3c6145cf565b613a4f601f8401601f19166020016144d7565b9050828152838383011115613a6357600080fd5b828260208301376000602084830101529392505050565b80356001600160a01b0381168114610d2557600080fd5b60008083601f840112613aa2578182fd5b50813567ffffffffffffffff811115613ab9578182fd5b602083019150836020828501011115613ad157600080fd5b9250929050565b600060208284031215613ae9578081fd5b61103482613a7a565b600080600060608486031215613b06578182fd5b613b0f84613a7a565b9250613b1d60208501613a7a565b9150613b2b60408501613a7a565b90509250925092565b600080600060608486031215613b48578283fd5b613b5184613a7a565b9250613b5f60208501613a7a565b9150604084013590509250925092565b60008060408385031215613b81578182fd5b613b8a83613a7a565b9150602083013567ffffffffffffffff811115613ba5578182fd5b8301601f81018513613bb5578182fd5b613bc485823560208401613a22565b9150509250929050565b60006020808385031215613be0578182fd5b825167ffffffffffffffff80821115613bf7578384fd5b818501915085601f830112613c0a578384fd5b815181811115613c1c57613c1c6145cf565b8060051b9150613c2d8483016144d7565b8181528481019084860184860187018a1015613c47578788fd5b8795505b83861015613c69578051835260019590950194918601918601613c4b565b5098975050505050505050565b600060208284031215613c87578081fd5b81518015158114611034578182fd5b60008060208385031215613ca8578182fd5b823567ffffffffffffffff811115613cbe578283fd5b613cca85828601613a91565b90969095509350505050565b600080600060408486031215613cea578283fd5b833567ffffffffffffffff811115613d00578384fd5b613d0c86828701613a91565b9094509250613b2b905060208501613a7a565b600080600080600060608688031215613d36578081fd5b853567ffffffffffffffff80821115613d4d578283fd5b613d5989838a01613a91565b90975095506020880135915080821115613d71578283fd5b50613d7e88828901613a91565b96999598509660400135949350505050565b600080600060408486031215613da4578283fd5b833567ffffffffffffffff811115613dba578384fd5b613dc686828701613a91565b909790965060209590950135949350505050565b600060208284031215613deb578081fd5b813567ffffffffffffffff811115613e01578182fd5b8201601f81018413613e11578182fd5b6137ac84823560208401613a22565b600060208284031215613e31578081fd5b5035919050565b600060208284031215613e49578081fd5b5051919050565b600080600060408486031215613e64578081fd5b83359250602084013567ffffffffffffffff811115613e81578182fd5b613e8d86828701613a91565b9497909650939450505050565b60008060008060008060808789031215613eb2578384fd5b8635955060208701359450604087013567ffffffffffffffff80821115613ed7578586fd5b613ee38a838b01613a91565b90965094506060890135915080821115613efb578283fd5b50613f0889828a01613a91565b979a9699509497509295939492505050565b6000815180845260208085019450808401835b83811015613f525781516001600160a01b031687529582019590820190600101613f2d565b509495945050505050565b60008284528282602086013780602084860101526020601f19601f85011685010190509392505050565b60008151808452613f9f816020860160208601614537565b601f01601f19169290920160200192915050565b60008154613fc081614563565b808552602060018381168015613fdd5760018114613ff15761401f565b60ff1985168884015260408801955061401f565b866000528260002060005b858110156140175781548a8201860152908301908401613ffc565b890184019650505b505050505092915050565b6000825161403c818460208701614537565b9190910192915050565b6000828483379101908152919050565b600080835461406481614563565b6001828116801561407c576001811461408d576140b9565b60ff198416875282870194506140b9565b8786526020808720875b858110156140b05781548a820152908401908201614097565b50505082870194505b50929695505050505050565b6001600160a01b038a168152610120602082018190526000906140ea8382018c613f87565b9050896040840152886060840152828103608084015261410a8189613f87565b90508660a084015282810360c08401526141248187613f87565b905082810360e08401526141388186613f87565b905082810361010084015261414d8185613f87565b9c9b505050505050505050505050565b600060408252614171604083018587613f5d565b82810360208401526141838185613fb3565b9695505050505050565b600060e082526141a160e083018b8d613f5d565b89602084015288604084015282810360608401526141c081888a613f5d565b90508560808401528460a084015282810360c084015261414d8185613fb3565b600060e082526141f460e08301898b613f5d565b87602084015286604084015282810380606085015260038252622ba3a960e91b60208301528660808501528560a08501526040810160c08501525061423c6040820185613fb3565b9a9950505050505050505050565b600060e0825261425e60e08301898b613f5d565b876020840152866040840152828103806060850152600382526243524f60e81b60208301528660808501528560a08501526040810160c08501525061423c6040820185613fb3565b6000602082526110346020830184613f87565b6020808252602e908201527f496e697469616c697a61626c653a20636f6e747261637420697320616c72656160408201526d191e481a5b9a5d1a585b1a5e995960921b606082015260800190565b60208082526013908201527210995d1d1a5b99c81a5cc8191a5cd8589b1959606a1b604082015260600190565b60208082526010908201526f0d2dcecc2d8d2c840c4cae892dcc8caf60831b604082015260600190565b6020808252818101527f4f776e61626c653a2063616c6c6572206973206e6f7420746865206f776e6572604082015260600190565b6000838252604060208301526137ac6040830184613f1a565b6000858252608060208301526143c56080830186613f1a565b6001600160a01b03949094166040830152506060015292915050565b600086825260a060208301526143fa60a0830187613f87565b85604084015284606084015282810360808401526144188185613fb3565b98975050505050505050565b600086825285602083015260a0604083015261444360a0830186613f1a565b6001600160a01b0394909416606083015250608001529392505050565b60006101008a83528960208401528060408401526144808184018a613f87565b905087606084015286608084015282810360a08401526144a08187613f87565b905082810360c08401526144b48186613f87565b905082810360e08401526144c88185613f87565b9b9a5050505050505050505050565b604051601f8201601f1916810167ffffffffffffffff81118282101715614500576145006145cf565b604052919050565b6000821982111561451b5761451b6145b9565b500190565b600082821015614532576145326145b9565b500390565b60005b8381101561455257818101518382015260200161453a565b838111156125be5750506000910152565b600181811c9082168061457757607f821691505b6020821081141561459857634e487b7160e01b600052602260045260246000fd5b50919050565b60006000198214156145b2576145b26145b9565b5060010190565b634e487b7160e01b600052601160045260246000fd5b634e487b7160e01b600052604160045260246000fdfe416464726573733a206c6f772d6c6576656c2064656c65676174652063616c6c206661696c6564a26469706673582212205559c4337f99e9b5b8624204b6d16a222f07444c66729f7d4c9fafdc0cfbb52264736f6c63430008030033",
  "linkReferences": {},
  "deployedLinkReferences": {}
}