{
  "_format": "hh-sol-artifact-1",
  "contractName": "CRC20Token",
  "sourceName": "contracts/CWGR.sol",
  "abi": [
    {
      "inputs": [],
      "stateMutability": "nonpayable",
      "type": "constructor"
    },
    {
      "anonymous": false,
      "inputs": [
        {
          "indexed": true,
          "internalType": "address",
          "name": "owner",
          "type": "address"
        },
        {
          "indexed": true,
          "internalType": "address",
          "name": "spender",
          "type": "address"
        },
        {
          "indexed": false,
          "internalType": "uint256",
          "name": "value",
          "type": "uint256"
        }
      ],
      "name": "Approval",
      "type": "event"
    },
    {
      "anonymous": false,
      "inputs": [
        {
          "indexed": true,
          "internalType": "address",
          "name": "previousOwner",
          "type": "address"
        },
        {
          "indexed": true,
          "internalType": "address",
          "name": "newOwner",
          "type": "address"
        }
      ],
      "name": "OwnershipTransferred",
      "type": "event"
    },
    {
      "anonymous": false,
      "inputs": [
        {
          "indexed": true,
          "internalType": "address",
          "name": "from",
          "type": "address"
        },
        {
          "indexed": true,
          "internalType": "address",
          "name": "to",
          "type": "address"
        },
        {
          "indexed": false,
          "internalType": "uint256",
          "name": "value",
          "type": "uint256"
        }
      ],
      "name": "Transfer",
      "type": "event"
    },
    {
      "inputs": [
        {
          "internalType": "address",
          "name": "owner",
          "type": "address"
        },
        {
          "internalType": "address",
          "name": "spender",
          "type": "address"
        }
      ],
      "name": "allowance",
      "outputs": [
        {
          "internalType": "uint256",
          "name": "",
          "type": "uint256"
        }
      ],
      "stateMutability": "view",
      "type": "function"
    },
    {
      "inputs": [
        {
          "internalType": "address",
          "name": "spender",
          "type": "address"
        },
        {
          "internalType": "uint256",
          "name": "amount",
          "type": "uint256"
        }
      ],
      "name": "approve",
      "outputs": [
        {
          "internalType": "bool",
          "name": "",
          "type": "bool"
        }
      ],
      "stateMutability": "nonpayable",
      "type": "function"
    },
    {
      "inputs": [
        {
          "internalType": "address",
          "name": "account",
          "type": "address"
        }
      ],
      "name": "balanceOf",
      "outputs": [
        {
          "internalType": "uint256",
          "name": "",
          "type": "uint256"
        }
      ],
      "stateMutability": "view",
      "type": "function"
    },
    {
      "inputs": [
        {
          "internalType": "uint256",
          "name": "amount",
          "type": "uint256"
        }
      ],
      "name": "burn",
      "outputs": [
        {
          "internalType": "bool",
          "name": "",
          "type": "bool"
        }
      ],
      "stateMutability": "nonpayable",
      "type": "function"
    },
    {
      "inputs": [],
      "name": "decimals",
      "outputs": [
        {
          "internalType": "uint8",
          "name": "",
          "type": "uint8"
        }
      ],
      "stateMutability": "view",
      "type": "function"
    },
    {
      "inputs": [
        {
          "internalType": "address",
          "name": "spender",
          "type": "address"
        },
        {
          "internalType": "uint256",
          "name": "subtractedValue",
          "type": "uint256"
        }
      ],
      "name": "decreaseAllowance",
      "outputs": [
        {
          "internalType": "bool",
          "name": "",
          "type": "bool"
        }
      ],
      "stateMutability": "nonpayable",
      "type": "function"
    },
    {
      "inputs": [],
      "name": "getOwner",
      "outputs": [
        {
          "internalType": "address",
          "name": "",
          "type": "address"
        }
      ],
      "stateMutability": "view",
      "type": "function"
    },
    {
      "inputs": [
        {
          "internalType": "address",
          "name": "spender",
          "type": "address"
        },
        {
          "internalType": "uint256",
          "name": "addedValue",
          "type": "uint256"
        }
      ],
      "name": "increaseAllowance",
      "outputs": [
        {
          "internalType": "bool",
          "name": "",
          "type": "bool"
        }
      ],
      "stateMutability": "nonpayable",
      "type": "function"
    },
    {
      "inputs": [
        {
          "internalType": "uint256",
          "name": "amount",
          "type": "uint256"
        }
      ],
      "name": "mint",
      "outputs": [
        {
          "internalType": "bool",
          "name": "",
          "type": "bool"
        }
      ],
      "stateMutability": "nonpayable",
      "type": "function"
    },
    {
      "inputs": [],
      "name": "name",
      "outputs": [
        {
          "internalType": "string",
          "name": "",
          "type": "string"
        }
      ],
      "stateMutability": "view",
      "type": "function"
    },
    {
      "inputs": [],
      "name": "owner",
      "outputs": [
        {
          "internalType": "address",
          "name": "",
          "type": "address"
        }
      ],
      "stateMutability": "view",
      "type": "function"
    },
    {
      "inputs": [],
      "name": "renounceOwnership",
      "outputs": [],
      "stateMutability": "nonpayable",
      "type": "function"
    },
    {
      "inputs": [],
      "name": "symbol",
      "outputs": [
        {
          "internalType": "string",
          "name": "",
          "type": "string"
        }
      ],
      "stateMutability": "view",
      "type": "function"
    },
    {
      "inputs": [],
      "name": "totalSupply",
      "outputs": [
        {
          "internalType": "uint256",
          "name": "",
          "type": "uint256"
        }
      ],
      "stateMutability": "view",
      "type": "function"
    },
    {
      "inputs": [
        {
          "internalType": "address",
          "name": "recipient",
          "type": "address"
        },
        {
          "internalType": "uint256",
          "name": "amount",
          "type": "uint256"
        }
      ],
      "name": "transfer",
      "outputs": [
        {
          "internalType": "bool",
          "name": "",
          "type": "bool"
        }
      ],
      "stateMutability": "nonpayable",
      "type": "function"
    },
    {
      "inputs": [
        {
          "internalType": "address",
          "name": "sender",
          "type": "address"
        },
        {
          "internalType": "address",
          "name": "recipient",
          "type": "address"
        },
        {
          "internalType": "uint256",
          "name": "amount",
          "type": "uint256"
        }
      ],
      "name": "transferFrom",
      "outputs": [
        {
          "internalType": "bool",
          "name": "",
          "type": "bool"
        }
      ],
      "stateMutability": "nonpayable",
      "type": "function"
    },
    {
      "inputs": [
        {
          "internalType": "address",
          "name": "newOwner",
          "type": "address"
        }
      ],
      "name": "transferOwnership",
      "outputs": [],
      "stateMutability": "nonpayable",
      "type": "function"
    }
  ],
  "bytecode": "0x60806040523480156200001157600080fd5b50600080546001600160a01b031916339081178255604051909182917f8be0079c531659141344cd1fd0a4f28419497f9722a3daafe3b4186f6b6457e0908290a350604080518082019091526006808252652bb0b3b2b93960d11b602090920191825262000080918162000122565b50604080518082019091526003808252622ba3a960e91b6020909201918252620000ad9160059162000122565b506004805460ff191660121790556aa56fa5b99019a5c800000060038190553360008181526001602052604080822084905551919290917fddf252ad1be2c89b69c2b068fc378daa952ba7f163c4a11628f55a4df523b3ef91620001149190815260200190565b60405180910390a362000205565b8280546200013090620001c8565b90600052602060002090601f0160209004810192826200015457600085556200019f565b82601f106200016f57805160ff19168380011785556200019f565b828001600101855582156200019f579182015b828111156200019f57825182559160200191906001019062000182565b50620001ad929150620001b1565b5090565b5b80821115620001ad5760008155600101620001b2565b600181811c90821680620001dd57607f821691505b60208210811415620001ff57634e487b7160e01b600052602260045260246000fd5b50919050565b610e6d80620002156000396000f3fe608060405234801561001057600080fd5b506004361061010b5760003560e01c8063715018a6116100a2578063a0712d6811610071578063a0712d6814610222578063a457c2d714610235578063a9059cbb14610248578063dd62ed3e1461025b578063f2fde38b146102945761010b565b8063715018a6146101da578063893d20e8146101e45780638da5cb5b1461020957806395d89b411461021a5761010b565b8063313ce567116100de578063313ce56714610176578063395093511461018b57806342966c681461019e57806370a08231146101b15761010b565b806306fdde0314610110578063095ea7b31461012e57806318160ddd1461015157806323b872dd14610163575b600080fd5b6101186102a7565b6040516101259190610c96565b60405180910390f35b61014161013c366004610c55565b610339565b6040519015158152602001610125565b6003545b604051908152602001610125565b610141610171366004610c1a565b61034f565b60045460405160ff9091168152602001610125565b610141610199366004610c55565b6103b8565b6101416101ac366004610c7e565b6103ee565b6101556101bf366004610bce565b6001600160a01b031660009081526001602052604090205490565b6101e2610435565b005b6000546001600160a01b03165b6040516001600160a01b039091168152602001610125565b6000546001600160a01b03166101f1565b6101186104a9565b610141610230366004610c7e565b6104b8565b610141610243366004610c55565b6104ed565b610141610256366004610c55565b61053c565b610155610269366004610be8565b6001600160a01b03918216600090815260026020908152604080832093909416825291909152205490565b6101e26102a2366004610bce565b610549565b6060600680546102b690610d4d565b80601f01602080910402602001604051908101604052809291908181526020018280546102e290610d4d565b801561032f5780601f106103045761010080835404028352916020019161032f565b820191906000526020600020905b81548152906001019060200180831161031257829003601f168201915b5050505050905090565b600061034633848461057f565b50600192915050565b600061035c8484846106a7565b6103ae84336103a985604051806060016040528060298152602001610dc6602991396001600160a01b038a166000908152600260209081526040808320338452909152902054919061082e565b61057f565b5060019392505050565b3360008181526002602090815260408083206001600160a01b038716845290915281205490916103469185906103a99086610868565b600080546001600160a01b031633146104225760405162461bcd60e51b815260040161041990610ce9565b60405180910390fd5b61042c33836108ce565b5060015b919050565b6000546001600160a01b0316331461045f5760405162461bcd60e51b815260040161041990610ce9565b600080546040516001600160a01b03909116907f8be0079c531659141344cd1fd0a4f28419497f9722a3daafe3b4186f6b6457e0908390a3600080546001600160a01b0319169055565b6060600580546102b690610d4d565b600080546001600160a01b031633146104e35760405162461bcd60e51b815260040161041990610ce9565b61042c33836109db565b600061034633846103a985604051806060016040528060268152602001610def602691393360009081526002602090815260408083206001600160a01b038d168452909152902054919061082e565b60006103463384846106a7565b6000546001600160a01b031633146105735760405162461bcd60e51b815260040161041990610ce9565b61057c81610ab5565b50565b6001600160a01b0383166105e35760405162461bcd60e51b815260206004820152602560248201527f2043524332303a20617070726f76652066726f6d20746865207a65726f206164604482015264647265737360d81b6064820152608401610419565b6001600160a01b0382166106455760405162461bcd60e51b815260206004820152602360248201527f2043524332303a20617070726f766520746f20746865207a65726f206164647260448201526265737360e81b6064820152608401610419565b6001600160a01b0383811660008181526002602090815260408083209487168084529482529182902085905590518481527f8c5be1e5ebec7d5bd14f71427d1e84f3dd0314c0f7b2291e5b200ac8c7c3b92591015b60405180910390a3505050565b6001600160a01b03831661070c5760405162461bcd60e51b815260206004820152602660248201527f2043524332303a207472616e736665722066726f6d20746865207a65726f206160448201526564647265737360d01b6064820152608401610419565b6001600160a01b03821661076e5760405162461bcd60e51b8152602060048201526024808201527f2043524332303a207472616e7366657220746f20746865207a65726f206164646044820152637265737360e01b6064820152608401610419565b6107ab81604051806060016040528060278152602001610d9f602791396001600160a01b038616600090815260016020526040902054919061082e565b6001600160a01b0380851660009081526001602052604080822093909355908416815220546107da9082610868565b6001600160a01b0380841660008181526001602052604090819020939093559151908516907fddf252ad1be2c89b69c2b068fc378daa952ba7f163c4a11628f55a4df523b3ef9061069a9085815260200190565b600081848411156108525760405162461bcd60e51b81526004016104199190610c96565b50600061085f8486610d36565b95945050505050565b6000806108758385610d1e565b9050838110156108c75760405162461bcd60e51b815260206004820152601b60248201527f536166654d6174683a206164646974696f6e206f766572666c6f7700000000006044820152606401610419565b9392505050565b6001600160a01b03821661092f5760405162461bcd60e51b815260206004820152602260248201527f2043524332303a206275726e2066726f6d20746865207a65726f206164647265604482015261737360f01b6064820152608401610419565b61096c81604051806060016040528060238152602001610e15602391396001600160a01b038516600090815260016020526040902054919061082e565b6001600160a01b0383166000908152600160205260409020556003546109929082610b75565b6003556040518181526000906001600160a01b038416907fddf252ad1be2c89b69c2b068fc378daa952ba7f163c4a11628f55a4df523b3ef906020015b60405180910390a35050565b6001600160a01b038216610a315760405162461bcd60e51b815260206004820181905260248201527f2043524332303a206d696e7420746f20746865207a65726f20616464726573736044820152606401610419565b600354610a3e9082610868565b6003556001600160a01b038216600090815260016020526040902054610a649082610868565b6001600160a01b0383166000818152600160205260408082209390935591519091907fddf252ad1be2c89b69c2b068fc378daa952ba7f163c4a11628f55a4df523b3ef906109cf9085815260200190565b6001600160a01b038116610b1a5760405162461bcd60e51b815260206004820152602660248201527f4f776e61626c653a206e6577206f776e657220697320746865207a65726f206160448201526564647265737360d01b6064820152608401610419565b600080546040516001600160a01b03808516939216917f8be0079c531659141344cd1fd0a4f28419497f9722a3daafe3b4186f6b6457e091a3600080546001600160a01b0319166001600160a01b0392909216919091179055565b60006108c783836040518060400160405280601e81526020017f536166654d6174683a207375627472616374696f6e206f766572666c6f77000081525061082e565b80356001600160a01b038116811461043057600080fd5b600060208284031215610bdf578081fd5b6108c782610bb7565b60008060408385031215610bfa578081fd5b610c0383610bb7565b9150610c1160208401610bb7565b90509250929050565b600080600060608486031215610c2e578081fd5b610c3784610bb7565b9250610c4560208501610bb7565b9150604084013590509250925092565b60008060408385031215610c67578182fd5b610c7083610bb7565b946020939093013593505050565b600060208284031215610c8f578081fd5b5035919050565b6000602080835283518082850152825b81811015610cc257858101830151858201604001528201610ca6565b81811115610cd35783604083870101525b50601f01601f1916929092016040019392505050565b6020808252818101527f4f776e61626c653a2063616c6c6572206973206e6f7420746865206f776e6572604082015260600190565b60008219821115610d3157610d31610d88565b500190565b600082821015610d4857610d48610d88565b500390565b600181811c90821680610d6157607f821691505b60208210811415610d8257634e487b7160e01b600052602260045260246000fd5b50919050565b634e487b7160e01b600052601160045260246000fdfe2043524332303a207472616e7366657220616d6f756e7420657863656564732062616c616e63652043524332303a207472616e7366657220616d6f756e74206578636565647320616c6c6f77616e63652043524332303a2064656372656173656420616c6c6f77616e63652062656c6f77207a65726f2043524332303a206275726e20616d6f756e7420657863656564732062616c616e6365a26469706673582212205549e6d0bfa237911253e245729fe9d1abe28ff9953cd96a618a68f66d9faf8c64736f6c63430008030033",
  "linkReferences": {},
  "deployedLinkReferences": {}
}